{
  "contractName": "Voting",
  "abi": [
    {
      "inputs": [],
      "stateMutability": "nonpayable",
      "type": "constructor"
    },
    {
      "anonymous": false,
      "inputs": [
        {
          "indexed": true,
          "internalType": "address",
          "name": "previousOwner",
          "type": "address"
        },
        {
          "indexed": true,
          "internalType": "address",
          "name": "newOwner",
          "type": "address"
        }
      ],
      "name": "OwnershipTransferred",
      "type": "event"
    },
    {
      "anonymous": false,
      "inputs": [
        {
          "indexed": false,
          "internalType": "uint256",
          "name": "proposalId",
          "type": "uint256"
        }
      ],
      "name": "ProposalRegistered",
      "type": "event"
    },
    {
      "anonymous": false,
      "inputs": [],
      "name": "ProposalsRegistrationEnded",
      "type": "event"
    },
    {
      "anonymous": false,
      "inputs": [],
      "name": "ProposalsRegistrationStarted",
      "type": "event"
    },
    {
      "anonymous": false,
      "inputs": [
        {
          "indexed": false,
          "internalType": "address",
          "name": "voter",
          "type": "address"
        },
        {
          "indexed": false,
          "internalType": "uint256",
          "name": "proposalId",
          "type": "uint256"
        }
      ],
      "name": "Voted",
      "type": "event"
    },
    {
      "anonymous": false,
      "inputs": [
        {
          "indexed": false,
          "internalType": "address",
          "name": "voterAddress",
          "type": "address"
        }
      ],
      "name": "VoterRegistered",
      "type": "event"
    },
    {
      "anonymous": false,
      "inputs": [],
      "name": "VotesTallied",
      "type": "event"
    },
    {
      "anonymous": false,
      "inputs": [],
      "name": "VotingSessionEnded",
      "type": "event"
    },
    {
      "anonymous": false,
      "inputs": [],
      "name": "VotingSessionStarted",
      "type": "event"
    },
    {
      "anonymous": false,
      "inputs": [
        {
          "indexed": false,
          "internalType": "enum Voting.WorkflowStatus",
          "name": "previousStatus",
          "type": "uint8"
        },
        {
          "indexed": false,
          "internalType": "enum Voting.WorkflowStatus",
          "name": "newStatus",
          "type": "uint8"
        }
      ],
      "name": "WorkflowStatusChange",
      "type": "event"
    },
    {
      "inputs": [],
      "name": "owner",
      "outputs": [
        {
          "internalType": "address",
          "name": "",
          "type": "address"
        }
      ],
      "stateMutability": "view",
      "type": "function",
      "constant": true
    },
    {
      "inputs": [],
      "name": "renounceOwnership",
      "outputs": [],
      "stateMutability": "nonpayable",
      "type": "function"
    },
    {
      "inputs": [
        {
          "internalType": "address",
          "name": "newOwner",
          "type": "address"
        }
      ],
      "name": "transferOwnership",
      "outputs": [],
      "stateMutability": "nonpayable",
      "type": "function"
    },
    {
      "inputs": [],
      "name": "winningProposalId",
      "outputs": [
        {
          "internalType": "uint256",
          "name": "",
          "type": "uint256"
        }
      ],
      "stateMutability": "view",
      "type": "function",
      "constant": true
    },
    {
      "inputs": [],
      "name": "workflowStatus",
      "outputs": [
        {
          "internalType": "enum Voting.WorkflowStatus",
          "name": "",
          "type": "uint8"
        }
      ],
      "stateMutability": "view",
      "type": "function",
      "constant": true
    },
    {
      "inputs": [
        {
          "internalType": "address",
          "name": "_address",
          "type": "address"
        }
      ],
      "name": "register",
      "outputs": [],
      "stateMutability": "nonpayable",
      "type": "function"
    },
    {
      "inputs": [],
      "name": "startProposalsRegistration",
      "outputs": [],
      "stateMutability": "nonpayable",
      "type": "function"
    },
    {
      "inputs": [],
      "name": "getProposal",
      "outputs": [
        {
          "components": [
            {
              "internalType": "string",
              "name": "description",
              "type": "string"
            },
            {
              "internalType": "uint256",
              "name": "voteCount",
              "type": "uint256"
            }
          ],
          "internalType": "struct Voting.Proposal[]",
          "name": "",
          "type": "tuple[]"
        }
      ],
      "stateMutability": "view",
      "type": "function",
      "constant": true
    },
    {
      "inputs": [],
      "name": "getWhitelist",
      "outputs": [
        {
          "components": [
            {
              "internalType": "address",
              "name": "Address",
              "type": "address"
            }
          ],
          "internalType": "struct Voting.WhitelistArray[]",
          "name": "",
          "type": "tuple[]"
        }
      ],
      "stateMutability": "view",
      "type": "function",
      "constant": true
    },
    {
      "inputs": [],
      "name": "getWorkflowStatus",
      "outputs": [
        {
          "internalType": "enum Voting.WorkflowStatus",
          "name": "",
          "type": "uint8"
        }
      ],
      "stateMutability": "view",
      "type": "function",
      "constant": true
    },
    {
      "inputs": [
        {
          "internalType": "string",
          "name": "_description",
          "type": "string"
        }
      ],
      "name": "registerProposal",
      "outputs": [],
      "stateMutability": "nonpayable",
      "type": "function"
    },
    {
      "inputs": [],
      "name": "endProposalsRegistration",
      "outputs": [],
      "stateMutability": "nonpayable",
      "type": "function"
    },
    {
      "inputs": [],
      "name": "startVotingSession",
      "outputs": [],
      "stateMutability": "nonpayable",
      "type": "function"
    },
    {
      "inputs": [
        {
          "internalType": "uint256",
          "name": "_proposalId",
          "type": "uint256"
        }
      ],
      "name": "vote",
      "outputs": [],
      "stateMutability": "nonpayable",
      "type": "function"
    },
    {
      "inputs": [],
      "name": "endVotingSession",
      "outputs": [],
      "stateMutability": "nonpayable",
      "type": "function"
    },
    {
      "inputs": [],
      "name": "tally",
      "outputs": [],
      "stateMutability": "nonpayable",
      "type": "function"
    }
  ],
  "bytecode": "0x608060405234801561001057600080fd5b5060006100216100e760201b60201c565b9050806000806101000a81548173ffffffffffffffffffffffffffffffffffffffff021916908373ffffffffffffffffffffffffffffffffffffffff1602179055508073ffffffffffffffffffffffffffffffffffffffff16600073ffffffffffffffffffffffffffffffffffffffff167f8be0079c531659141344cd1fd0a4f28419497f9722a3daafe3b4186f6b6457e060405160405180910390a35060008060146101000a81548160ff021916908360058111156100dd57fe5b02179055506100ef565b600033905090565b6125b080620000ff6000396000f3fe608060405234801561001057600080fd5b50600436106101005760003560e01c8063a7bfab1611610097578063e09b8c7911610066578063e09b8c7914610217578063ee74c67814610221578063f2fde38b1461022b578063f75d64a61461024757610100565b8063a7bfab16146101b3578063b9e2bea0146101bd578063c64963c5146101db578063d01f63f5146101f957610100565b80636c297445116100d35780636c29744514610163578063715018a61461016d5780638da5cb5b14610177578063a1edffa21461019557610100565b80630121b93f146101055780632f95355b14610121578063410673e51461013d5780634420e48614610147575b600080fd5b61011f600480360381019061011a9190611ab5565b610265565b005b61013b60048036038101906101369190611a74565b610513565b005b610145610796565b005b610161600480360381019061015c9190611a4b565b6109a9565b005b61016b610c9a565b005b610175610e3e565b005b61017f610fab565b60405161018c91906120df565b60405180910390f35b61019d610fd4565b6040516101aa9190612167565b60405180910390f35b6101bb610fe7565b005b6101c561118b565b6040516101d29190612123565b60405180910390f35b6101e36112ff565b6040516101f0919061230b565b60405180910390f35b610201611305565b60405161020e9190612145565b60405180910390f35b61021f6113b6565b005b61022961155a565b005b61024560048036038101906102409190611a4b565b6116fe565b005b61024f6118f0565b60405161025c9190612167565b60405180910390f35b6000600260003373ffffffffffffffffffffffffffffffffffffffff1673ffffffffffffffffffffffffffffffffffffffff16815260200190815260200160002054116102e7576040517f08c379a00000000000000000000000000000000000000000000000000000000081526004016102de906122eb565b60405180910390fd5b600360058111156102f457fe5b600060149054906101000a900460ff16600581111561030f57fe5b1461034f576040517f08c379a00000000000000000000000000000000000000000000000000000000081526004016103469061226b565b60405180910390fd5b60006001600260003373ffffffffffffffffffffffffffffffffffffffff1673ffffffffffffffffffffffffffffffffffffffff1681526020019081526020016000205403905060001515600182815481106103a757fe5b906000526020600020906003020160000160019054906101000a900460ff16151514610408576040517f08c379a00000000000000000000000000000000000000000000000000000000081526004016103ff9061220b565b60405180910390fd5b600380549050821061044f576040517f08c379a00000000000000000000000000000000000000000000000000000000081526004016104469061222b565b60405180910390fd5b816001828154811061045d57fe5b906000526020600020906003020160010181905550600180828154811061048057fe5b906000526020600020906003020160000160016101000a81548160ff021916908315150217905550600382815481106104b557fe5b9060005260206000209060020201600101600081548092919060010191905055507f4d99b957a2bc29a30ebd96a7be8e68fe50a3c701db28a91436490b7d53870ca433836040516105079291906120fa565b60405180910390a15050565b6000600260003373ffffffffffffffffffffffffffffffffffffffff1673ffffffffffffffffffffffffffffffffffffffff1681526020019081526020016000205411610595576040517f08c379a000000000000000000000000000000000000000000000000000000000815260040161058c906122eb565b60405180910390fd5b600160058111156105a257fe5b600060149054906101000a900460ff1660058111156105bd57fe5b146105fd576040517f08c379a00000000000000000000000000000000000000000000000000000000081526004016105f49061228b565b60405180910390fd5b60006001600260003373ffffffffffffffffffffffffffffffffffffffff1673ffffffffffffffffffffffffffffffffffffffff16815260200190815260200160002054039050600015156001828154811061065557fe5b906000526020600020906003020160020160009054906101000a900460ff161515146106b6576040517f08c379a00000000000000000000000000000000000000000000000000000000081526004016106ad9061224b565b60405180910390fd5b6003604051806040016040528084815260200160008152509080600181540180825580915050600190039060005260206000209060020201600090919091909150600082015181600001908051906020019061071392919061190e565b50602082015181600101555050600180828154811061072e57fe5b906000526020600020906003020160020160006101000a81548160ff0219169083151502179055507f92e393e9b54e2f801d3ea4beb0c5e71a21cc34a5d34b77d0fb8a3aa1650dc18f60038054905060405161078a919061230b565b60405180910390a15050565b61079e611906565b73ffffffffffffffffffffffffffffffffffffffff166107bc610fab565b73ffffffffffffffffffffffffffffffffffffffff1614610845576040517f08c379a00000000000000000000000000000000000000000000000000000000081526004018080602001828103825260208152602001807f4f776e61626c653a2063616c6c6572206973206e6f7420746865206f776e657281525060200191505060405180910390fd5b6004600581111561085257fe5b600060149054906101000a900460ff16600581111561086d57fe5b146108ad576040517f08c379a00000000000000000000000000000000000000000000000000000000081526004016108a4906122cb565b60405180910390fd5b6000805b60038054905081101561091a5781600382815481106108cc57fe5b906000526020600020906002020160010154111561090d5780600581905550600381815481106108f857fe5b90600052602060002090600202016001015491505b80806001019150506108b1565b506005600060146101000a81548160ff0219169083600581111561093a57fe5b02179055507f0e5e95ff8725ab3e7a4b6b59998a4c344c2aa8d1485f5e60cb7f337768e6134760405160405180910390a17f0a97a4ee45751e2abf3e4fc8946939630b11b371ea8ae39ccdc3056e98f5cc3f6004600560405161099e929190612182565b60405180910390a150565b6109b1611906565b73ffffffffffffffffffffffffffffffffffffffff166109cf610fab565b73ffffffffffffffffffffffffffffffffffffffff1614610a58576040517f08c379a00000000000000000000000000000000000000000000000000000000081526004018080602001828103825260208152602001807f4f776e61626c653a2063616c6c6572206973206e6f7420746865206f776e657281525060200191505060405180910390fd5b60006005811115610a6557fe5b600060149054906101000a900460ff166005811115610a8057fe5b14610ac0576040517f08c379a0000000000000000000000000000000000000000000000000000000008152600401610ab7906122ab565b60405180910390fd5b600160405180608001604052806001151581526020016000151581526020016000815260200160001515815250908060018154018082558091505060019003906000526020600020906003020160009091909190915060008201518160000160006101000a81548160ff02191690831515021790555060208201518160000160016101000a81548160ff0219169083151502179055506040820151816001015560608201518160020160006101000a81548160ff0219169083151502179055505050600460405180602001604052808373ffffffffffffffffffffffffffffffffffffffff168152509080600181540180825580915050600190039060005260206000200160009091909190915060008201518160000160006101000a81548173ffffffffffffffffffffffffffffffffffffffff021916908373ffffffffffffffffffffffffffffffffffffffff1602179055505050600180549050600260008373ffffffffffffffffffffffffffffffffffffffff1673ffffffffffffffffffffffffffffffffffffffff168152602001908152602001600020819055507fb6be2187d059cc2a55fe29e0e503b566e1e0f8c8780096e185429350acffd3dd81604051610c8f91906120df565b60405180910390a150565b610ca2611906565b73ffffffffffffffffffffffffffffffffffffffff16610cc0610fab565b73ffffffffffffffffffffffffffffffffffffffff1614610d49576040517f08c379a00000000000000000000000000000000000000000000000000000000081526004018080602001828103825260208152602001807f4f776e61626c653a2063616c6c6572206973206e6f7420746865206f776e657281525060200191505060405180910390fd5b60016005811115610d5657fe5b600060149054906101000a900460ff166005811115610d7157fe5b14610db1576040517f08c379a0000000000000000000000000000000000000000000000000000000008152600401610da89061228b565b60405180910390fd5b6002600060146101000a81548160ff02191690836005811115610dd057fe5b02179055507f240cb87b2e4df4c318e72bd714d45a9cad60249e883ff56b1fffd83a4595a8fa60405160405180910390a17f0a97a4ee45751e2abf3e4fc8946939630b11b371ea8ae39ccdc3056e98f5cc3f60016002604051610e34929190612182565b60405180910390a1565b610e46611906565b73ffffffffffffffffffffffffffffffffffffffff16610e64610fab565b73ffffffffffffffffffffffffffffffffffffffff1614610eed576040517f08c379a00000000000000000000000000000000000000000000000000000000081526004018080602001828103825260208152602001807f4f776e61626c653a2063616c6c6572206973206e6f7420746865206f776e657281525060200191505060405180910390fd5b600073ffffffffffffffffffffffffffffffffffffffff1660008054906101000a900473ffffffffffffffffffffffffffffffffffffffff1673ffffffffffffffffffffffffffffffffffffffff167f8be0079c531659141344cd1fd0a4f28419497f9722a3daafe3b4186f6b6457e060405160405180910390a360008060006101000a81548173ffffffffffffffffffffffffffffffffffffffff021916908373ffffffffffffffffffffffffffffffffffffffff160217905550565b60008060009054906101000a900473ffffffffffffffffffffffffffffffffffffffff16905090565b600060149054906101000a900460ff1681565b610fef611906565b73ffffffffffffffffffffffffffffffffffffffff1661100d610fab565b73ffffffffffffffffffffffffffffffffffffffff1614611096576040517f08c379a00000000000000000000000000000000000000000000000000000000081526004018080602001828103825260208152602001807f4f776e61626c653a2063616c6c6572206973206e6f7420746865206f776e657281525060200191505060405180910390fd5b600360058111156110a357fe5b600060149054906101000a900460ff1660058111156110be57fe5b146110fe576040517f08c379a00000000000000000000000000000000000000000000000000000000081526004016110f59061226b565b60405180910390fd5b6004600060146101000a81548160ff0219169083600581111561111d57fe5b02179055507fc379d349a6301baf50fb2f98d829f4ae10b1cdb7c66f4e4d8117302df7b8cd4c60405160405180910390a17f0a97a4ee45751e2abf3e4fc8946939630b11b371ea8ae39ccdc3056e98f5cc3f60036004604051611181929190612182565b60405180910390a1565b60606000600581111561119a57fe5b600060149054906101000a900460ff1660058111156111b557fe5b14156111f6576040517f08c379a00000000000000000000000000000000000000000000000000000000081526004016111ed906121ab565b60405180910390fd5b6003805480602002602001604051908101604052809291908181526020016000905b828210156112f65783829060005260206000209060020201604051806040016040529081600082018054600181600116156101000203166002900480601f0160208091040260200160405190810160405280929190818152602001828054600181600116156101000203166002900480156112d45780601f106112a9576101008083540402835291602001916112d4565b820191906000526020600020905b8154815290600101906020018083116112b757829003601f168201915b5050505050815260200160018201548152505081526020019060010190611218565b50505050905090565b60055481565b60606004805480602002602001604051908101604052809291908181526020016000905b828210156113ad578382906000526020600020016040518060200160405290816000820160009054906101000a900473ffffffffffffffffffffffffffffffffffffffff1673ffffffffffffffffffffffffffffffffffffffff1673ffffffffffffffffffffffffffffffffffffffff168152505081526020019060010190611329565b50505050905090565b6113be611906565b73ffffffffffffffffffffffffffffffffffffffff166113dc610fab565b73ffffffffffffffffffffffffffffffffffffffff1614611465576040517f08c379a00000000000000000000000000000000000000000000000000000000081526004018080602001828103825260208152602001807f4f776e61626c653a2063616c6c6572206973206e6f7420746865206f776e657281525060200191505060405180910390fd5b6000600581111561147257fe5b600060149054906101000a900460ff16600581111561148d57fe5b146114cd576040517f08c379a00000000000000000000000000000000000000000000000000000000081526004016114c4906121cb565b60405180910390fd5b6001600060146101000a81548160ff021916908360058111156114ec57fe5b02179055507f344c25562921d075a298d34b6dd1fd00d36ff293974539dfd4a8c625d9f0064c60405160405180910390a17f0a97a4ee45751e2abf3e4fc8946939630b11b371ea8ae39ccdc3056e98f5cc3f60006001604051611550929190612182565b60405180910390a1565b611562611906565b73ffffffffffffffffffffffffffffffffffffffff16611580610fab565b73ffffffffffffffffffffffffffffffffffffffff1614611609576040517f08c379a00000000000000000000000000000000000000000000000000000000081526004018080602001828103825260208152602001807f4f776e61626c653a2063616c6c6572206973206e6f7420746865206f776e657281525060200191505060405180910390fd5b6002600581111561161657fe5b600060149054906101000a900460ff16600581111561163157fe5b14611671576040517f08c379a0000000000000000000000000000000000000000000000000000000008152600401611668906121eb565b60405180910390fd5b6003600060146101000a81548160ff0219169083600581111561169057fe5b02179055507f1b8e19a458c1bcd88553332c518cc5c4e2d5793e712ee766d4f1c14f672ef1f560405160405180910390a17f0a97a4ee45751e2abf3e4fc8946939630b11b371ea8ae39ccdc3056e98f5cc3f600260036040516116f4929190612182565b60405180910390a1565b611706611906565b73ffffffffffffffffffffffffffffffffffffffff16611724610fab565b73ffffffffffffffffffffffffffffffffffffffff16146117ad576040517f08c379a00000000000000000000000000000000000000000000000000000000081526004018080602001828103825260208152602001807f4f776e61626c653a2063616c6c6572206973206e6f7420746865206f776e657281525060200191505060405180910390fd5b600073ffffffffffffffffffffffffffffffffffffffff168173ffffffffffffffffffffffffffffffffffffffff161415611833576040517f08c379a00000000000000000000000000000000000000000000000000000000081526004018080602001828103825260268152602001806125556026913960400191505060405180910390fd5b8073ffffffffffffffffffffffffffffffffffffffff1660008054906101000a900473ffffffffffffffffffffffffffffffffffffffff1673ffffffffffffffffffffffffffffffffffffffff167f8be0079c531659141344cd1fd0a4f28419497f9722a3daafe3b4186f6b6457e060405160405180910390a3806000806101000a81548173ffffffffffffffffffffffffffffffffffffffff021916908373ffffffffffffffffffffffffffffffffffffffff16021790555050565b60008060149054906101000a900460ff16905090565b600033905090565b828054600181600116156101000203166002900490600052602060002090601f016020900481019282611944576000855561198b565b82601f1061195d57805160ff191683800117855561198b565b8280016001018555821561198b579182015b8281111561198a57825182559160200191906001019061196f565b5b509050611998919061199c565b5090565b5b808211156119b557600081600090555060010161199d565b5090565b60006119cc6119c784612357565b612326565b9050828152602081018484840111156119e457600080fd5b6119ef8482856124bd565b509392505050565b600081359050611a0681612526565b92915050565b600082601f830112611a1d57600080fd5b8135611a2d8482602086016119b9565b91505092915050565b600081359050611a458161253d565b92915050565b600060208284031215611a5d57600080fd5b6000611a6b848285016119f7565b91505092915050565b600060208284031215611a8657600080fd5b600082013567ffffffffffffffff811115611aa057600080fd5b611aac84828501611a0c565b91505092915050565b600060208284031215611ac757600080fd5b6000611ad584828501611a36565b91505092915050565b6000611aea8383612068565b905092915050565b6000611afe83836120a5565b60208301905092915050565b611b1381612475565b82525050565b611b2281612426565b82525050565b611b3181612426565b82525050565b6000611b42826123a7565b611b4c81856123e2565b935083602082028501611b5e85612387565b8060005b85811015611b9a5784840389528151611b7b8582611ade565b9450611b86836123c8565b925060208a01995050600181019050611b62565b50829750879550505050505092915050565b6000611bb7826123b2565b611bc181856123f3565b9350611bcc83612397565b8060005b83811015611bfd578151611be48882611af2565b9750611bef836123d5565b925050600181019050611bd0565b5085935050505092915050565b611c1381612487565b82525050565b6000611c24826123bd565b611c2e8185612404565b9350611c3e8185602086016124cc565b611c4781612501565b840191505092915050565b6000611c5f603d83612415565b91507f4c61207068617365206427656e72656769737472656d656e742064657320707260008301527f6f706f736974696f6e73206e27612070617320636f6d6d656e636520210000006020830152604082019050919050565b6000611cc5604283612415565b91507f4c61207068617365206427656e72656769737472656d656e742064657320707260008301527f6f706f736974696f6e73206e65207065757420657472652064656d617272656560208301527f20210000000000000000000000000000000000000000000000000000000000006040830152606082019050919050565b6000611d51602a83612415565b91507f4c612073657373696f6e20646520766f7465206e65207065757420657472652060008301527f64656d61727265652021000000000000000000000000000000000000000000006020830152604082019050919050565b6000611db7601583612415565b91507f566f7573206176657a2064656a6120766f7465202100000000000000000000006000830152602082019050919050565b6000611df7601a83612415565b91507f49642064652070726f706f736974696f6e20696e76616c6964650000000000006000830152602082019050919050565b6000611e37602583612415565b91507f566f7573206176657a2064656a61206661697420756e652070726f706f73697460008301527f696f6e20210000000000000000000000000000000000000000000000000000006020830152604082019050919050565b6000611e9d602783612415565b91507f4c612073657373696f6e20646520766f7465206e276573742070617320656e2060008301527f636f7572732021000000000000000000000000000000000000000000000000006020830152604082019050919050565b6000611f03603f83612415565b91507f4c61207068617365206427656e72656769737472656d656e742064657320707260008301527f6f706f736974696f6e73206e276573742070617320656e20636f7572732021006020830152604082019050919050565b6000611f69603683612415565b91507f4c61207068617365206427656e72656769737472656d656e742064657320656c60008301527f6563746575727320657374207465726d696e65652021000000000000000000006020830152604082019050919050565b6000611fcf602783612415565b91507f4c612073657373696f6e20646520766f7465206e27657374207061732074657260008301527f6d696e65652021000000000000000000000000000000000000000000000000006020830152604082019050919050565b6000612035601983612415565b91507f566f7573206e27657465732070617320696e73637269742021000000000000006000830152602082019050919050565b600060408301600083015184820360008601526120858282611c19565b915050602083015161209a60208601826120c1565b508091505092915050565b6020820160008201516120bb6000850182611b19565b50505050565b6120ca8161246b565b82525050565b6120d98161246b565b82525050565b60006020820190506120f46000830184611b28565b92915050565b600060408201905061210f6000830185611b0a565b61211c60208301846120d0565b9392505050565b6000602082019050818103600083015261213d8184611b37565b905092915050565b6000602082019050818103600083015261215f8184611bac565b905092915050565b600060208201905061217c6000830184611c0a565b92915050565b60006040820190506121976000830185611c0a565b6121a46020830184611c0a565b9392505050565b600060208201905081810360008301526121c481611c52565b9050919050565b600060208201905081810360008301526121e481611cb8565b9050919050565b6000602082019050818103600083015261220481611d44565b9050919050565b6000602082019050818103600083015261222481611daa565b9050919050565b6000602082019050818103600083015261224481611dea565b9050919050565b6000602082019050818103600083015261226481611e2a565b9050919050565b6000602082019050818103600083015261228481611e90565b9050919050565b600060208201905081810360008301526122a481611ef6565b9050919050565b600060208201905081810360008301526122c481611f5c565b9050919050565b600060208201905081810360008301526122e481611fc2565b9050919050565b6000602082019050818103600083015261230481612028565b9050919050565b600060208201905061232060008301846120d0565b92915050565b6000604051905081810181811067ffffffffffffffff8211171561234d5761234c6124ff565b5b8060405250919050565b600067ffffffffffffffff821115612372576123716124ff565b5b601f19601f8301169050602081019050919050565b6000819050602082019050919050565b6000819050602082019050919050565b600081519050919050565b600081519050919050565b600081519050919050565b6000602082019050919050565b6000602082019050919050565b600082825260208201905092915050565b600082825260208201905092915050565b600082825260208201905092915050565b600082825260208201905092915050565b60006124318261244b565b9050919050565b600081905061244682612512565b919050565b600073ffffffffffffffffffffffffffffffffffffffff82169050919050565b6000819050919050565b600061248082612499565b9050919050565b600061249282612438565b9050919050565b60006124a4826124ab565b9050919050565b60006124b68261244b565b9050919050565b82818337600083830152505050565b60005b838110156124ea5780820151818401526020810190506124cf565b838111156124f9576000848401525b50505050565bfe5b6000601f19601f8301169050919050565b60068110612523576125226124ff565b5b50565b61252f81612426565b811461253a57600080fd5b50565b6125468161246b565b811461255157600080fd5b5056fe4f776e61626c653a206e6577206f776e657220697320746865207a65726f2061646472657373a264697066735822122093ecc51f6f874e5c35994fd5ca5cb43cb292c6fa489e38dba211296aefa7749564736f6c63430007060033",
  "immutableReferences": {},
  "source": "// SPDX-License-Identifier: MIT\npragma solidity >=0.6.0 <0.8.0;\n\npragma experimental ABIEncoderV2;\n\n//import \"@openzeppelin/contracts/access/Ownable.sol\";\nimport \"./Ownable.sol\";\n\n/**\n * @title Voting\n * @author groupe 5 : yann, louisplessis, oudom\n * @notice Dfi 1\n * @dev administrateur du vote = owner\n */\n contract Voting is Ownable {\n    // Les diffrentes phases du vote se succdant\n    enum WorkflowStatus {\n        RegisteringVoters, // 0\n        ProposalsRegistrationStarted, // 1\n        ProposalsRegistrationEnded, // 2\n        VotingSessionStarted, // 3\n        VotingSessionEnded, // 4\n        VotesTallied // 5\n    }\n\n    event VoterRegistered(address voterAddress);\n    event ProposalsRegistrationStarted();\n    event ProposalsRegistrationEnded();\n    event ProposalRegistered(uint proposalId);\n    event VotingSessionStarted();\n    event VotingSessionEnded();\n    event Voted (address voter, uint proposalId);\n    event VotesTallied();\n    event WorkflowStatusChange(WorkflowStatus previousStatus, WorkflowStatus newStatus);\n\n    struct Voter {\n        bool isRegistered;\n        bool hasVoted;\n        uint votedProposalId;\n        bool hasProposed;\n    }\n\n    struct Proposal {\n        string description;\n        uint voteCount;\n    }\n\n    struct WhitelistArray {\n        address Address;\n    }\n\n    // status du contrat\n    WorkflowStatus public workflowStatus;\n    // pour stocker les lecteurs et leurs votes\n    Voter[] private voters;\n    // pour enregistrer les lecteurs (adresse Ethereum => id, id commence  1)\n    mapping (address => uint) private whitelist;\n    // pour enregistrer les propositions\n    Proposal[] private proposals;\n      // pour get all users in whitelist, impossible de return un mapping?\n    WhitelistArray[] private whitelistArray;\n    // index de la proposition ayant reu le plus de votes, commence  0\n    uint public winningProposalId;\n\n    modifier isWhitelisted() {\n        require(whitelist[msg.sender] > 0, \"Vous n\\'etes pas inscrit !\");\n        _;\n    }\n\n    constructor() public {\n        workflowStatus = WorkflowStatus.RegisteringVoters;\n    }\n\n   /**\n    * @notice L'administrateur du vote enregistre une liste blanche d'lecteurs identifis par leur adresse Ethereum.\n    */\n    function register(address _address) public onlyOwner {\n        require(workflowStatus == WorkflowStatus.RegisteringVoters, \"La phase d\\'enregistrement des electeurs est terminee !\");\n      //ajouter le fait de ne pas pouvoir ajouter une adr 2x\n            voters.push(Voter(true, false, 0, false));\n            whitelistArray.push(WhitelistArray(_address));\n            whitelist[_address] = voters.length;\n            emit VoterRegistered(_address); \n        \n    }\n\n    /**\n     * @notice L'administrateur du vote commence la session d'enregistrement de la proposition.\n     */\n    function startProposalsRegistration() public  onlyOwner {\n        require(workflowStatus == WorkflowStatus.RegisteringVoters, \"La phase d\\'enregistrement des propositions ne peut etre demarree !\");\n        workflowStatus = WorkflowStatus.ProposalsRegistrationStarted;\n        emit ProposalsRegistrationStarted();\n        emit WorkflowStatusChange(WorkflowStatus.RegisteringVoters, WorkflowStatus.ProposalsRegistrationStarted);\n    }\n\n     /**\n     * @notice Permet de rcuprer la liste des propositions.\n     */\n    function getProposal() public  view returns (Proposal[] memory){\n        require(workflowStatus != WorkflowStatus.RegisteringVoters, \"La phase d\\'enregistrement des propositions n\\'a pas commence !\");\n        return proposals;\n    }\n\n      /**\n     * @notice Permet de rcuprer la liste des propositions.\n     */\n    function getWhitelist() public  view returns (WhitelistArray[] memory){\n       // require(workflowStatus != WorkflowStatus.RegisteringVoters, \"La phase d\\'enregistrement des propositions n\\'a pas commence !\");\n        return whitelistArray;\n    }\n\n\n    function getWorkflowStatus() public view returns (WorkflowStatus) {\n         return workflowStatus;       \n     }\n\n    /**\n     * @notice Les lecteurs inscrits sont autoriss  enregistrer leurs propositions pendant que la session d'enregistrement est active.\n     */\n    function registerProposal(string memory _description) public isWhitelisted {\n        require(workflowStatus == WorkflowStatus.ProposalsRegistrationStarted, \"La phase d\\'enregistrement des propositions n\\'est pas en cours !\");\n        uint voterId = whitelist[msg.sender] - 1;\n        require(voters[voterId].hasProposed == false, \"Vous avez deja fait une proposition !\");\n        proposals.push(Proposal(_description, 0));\n        voters[voterId].hasProposed = true;\n        emit ProposalRegistered(proposals.length);\n    }\n\n    /**\n     * @notice  L'administrateur de vote met fin  la session d'enregistrement des propositions.\n     */\n    function endProposalsRegistration() public  onlyOwner {\n        require(workflowStatus == WorkflowStatus.ProposalsRegistrationStarted, \"La phase d'enregistrement des propositions n'est pas en cours !\");\n        workflowStatus = WorkflowStatus.ProposalsRegistrationEnded;\n        emit ProposalsRegistrationEnded();\n        emit WorkflowStatusChange(WorkflowStatus.ProposalsRegistrationStarted, WorkflowStatus.ProposalsRegistrationEnded);\n    }\n\n    /**\n     * @notice L'administrateur du vote commence la session de vote.\n     */\n    function startVotingSession() public  onlyOwner {\n        require(workflowStatus == WorkflowStatus.ProposalsRegistrationEnded, \"La session de vote ne peut etre demarree !\");\n        workflowStatus = WorkflowStatus.VotingSessionStarted;\n        emit VotingSessionStarted();\n        emit WorkflowStatusChange(WorkflowStatus.ProposalsRegistrationEnded, WorkflowStatus.VotingSessionStarted);\n    }\n\n    /**\n     * @notice Les lecteurs inscrits votent pour leurs propositions prfres.\n     */\n    function vote(uint _proposalId) public isWhitelisted {\n        require(workflowStatus == WorkflowStatus.VotingSessionStarted, \"La session de vote n'est pas en cours !\");\n        uint voterId = whitelist[msg.sender] - 1;\n        require(voters[voterId].hasVoted == false, \"Vous avez deja vote !\");\n        require(_proposalId < proposals.length , \"Id de proposition invalide\");\n        voters[voterId].votedProposalId = _proposalId;\n        voters[voterId].hasVoted = true;\n        proposals[_proposalId].voteCount++;\n        emit Voted(msg.sender, _proposalId);\n    }\n\n    /**\n     * @notice L'administrateur du vote met fin  la session de vote.\n     */\n    function endVotingSession() public  onlyOwner {\n        require(workflowStatus == WorkflowStatus.VotingSessionStarted, \"La session de vote n\\'est pas en cours !\");\n        workflowStatus = WorkflowStatus.VotingSessionEnded;\n        emit VotingSessionEnded();\n        emit WorkflowStatusChange(WorkflowStatus.VotingSessionStarted, WorkflowStatus.VotingSessionEnded);\n    }\n\n    /**\n     * @notice L'administrateur du vote comptabilise les votes.\n     */\n    function tally() public onlyOwner {\n        require(workflowStatus == WorkflowStatus.VotingSessionEnded, \"La session de vote n\\'est pas terminee !\");\n        uint maxVoteCount = 0;\n        for (uint i = 0; i < proposals.length; i++) {\n            if (proposals[i].voteCount > maxVoteCount) {\n                winningProposalId = i;\n                maxVoteCount = proposals[i].voteCount;\n            }\n        }\n        workflowStatus = WorkflowStatus.VotesTallied;\n        emit VotesTallied();\n        emit WorkflowStatusChange(WorkflowStatus.VotingSessionEnded, WorkflowStatus.VotesTallied);\n    }\n}",
  "sourcePath": "/Users/louisplessis/Documents/Alyra/projet-truffle-react/contracts/Voting.sol",
  "compiler": {
    "name": "solc",
    "version": "0.7.6+commit.7338295f.Emscripten.clang"
  },
  "schemaVersion": "3.3.4",
  "updatedAt": "2021-03-18T07:05:43.063Z",
  "networkType": "ethereum",
  "devdoc": {
    "author": "groupe 5 : yann, louisplessis, oudom",
    "details": "administrateur du vote = owner",
    "kind": "dev",
    "methods": {
      "owner()": {
        "details": "Returns the address of the current owner."
      },
      "renounceOwnership()": {
        "details": "Leaves the contract without owner. It will not be possible to call `onlyOwner` functions anymore. Can only be called by the current owner. NOTE: Renouncing ownership will leave the contract without an owner, thereby removing any functionality that is only available to the owner."
      },
      "transferOwnership(address)": {
        "details": "Transfers ownership of the contract to a new account (`newOwner`). Can only be called by the current owner."
      }
    },
    "title": "Voting",
    "version": 1
  },
  "userdoc": {
    "kind": "user",
    "methods": {
      "endProposalsRegistration()": {
        "notice": "L'administrateur de vote met fin  la session d'enregistrement des propositions."
      },
      "endVotingSession()": {
        "notice": "L'administrateur du vote met fin  la session de vote."
      },
      "getProposal()": {
        "notice": "Permet de rcuprer la liste des propositions."
      },
      "getWhitelist()": {
        "notice": "Permet de rcuprer la liste des propositions."
      },
      "register(address)": {
        "notice": "L'administrateur du vote enregistre une liste blanche d'lecteurs identifis par leur adresse Ethereum."
      },
      "registerProposal(string)": {
        "notice": "Les lecteurs inscrits sont autoriss  enregistrer leurs propositions pendant que la session d'enregistrement est active."
      },
      "startProposalsRegistration()": {
        "notice": "L'administrateur du vote commence la session d'enregistrement de la proposition."
      },
      "startVotingSession()": {
        "notice": "L'administrateur du vote commence la session de vote."
      },
      "tally()": {
        "notice": "L'administrateur du vote comptabilise les votes."
      },
      "vote(uint256)": {
        "notice": "Les lecteurs inscrits votent pour leurs propositions prfres."
      }
    },
    "notice": "Dfi 1",
    "version": 1
  }
}