{
  "contractName": "Voting",
  "abi": [
    {
      "inputs": [],
      "stateMutability": "nonpayable",
      "type": "constructor"
    },
    {
      "anonymous": false,
      "inputs": [
        {
          "indexed": true,
          "internalType": "address",
          "name": "previousOwner",
          "type": "address"
        },
        {
          "indexed": true,
          "internalType": "address",
          "name": "newOwner",
          "type": "address"
        }
      ],
      "name": "OwnershipTransferred",
      "type": "event"
    },
    {
      "anonymous": false,
      "inputs": [
        {
          "indexed": false,
          "internalType": "uint256",
          "name": "proposalId",
          "type": "uint256"
        }
      ],
      "name": "ProposalRegistered",
      "type": "event"
    },
    {
      "anonymous": false,
      "inputs": [],
      "name": "ProposalsRegistrationEnded",
      "type": "event"
    },
    {
      "anonymous": false,
      "inputs": [],
      "name": "ProposalsRegistrationStarted",
      "type": "event"
    },
    {
      "anonymous": false,
      "inputs": [
        {
          "indexed": false,
          "internalType": "address",
          "name": "voter",
          "type": "address"
        },
        {
          "indexed": false,
          "internalType": "uint256",
          "name": "proposalId",
          "type": "uint256"
        }
      ],
      "name": "Voted",
      "type": "event"
    },
    {
      "anonymous": false,
      "inputs": [
        {
          "indexed": false,
          "internalType": "address",
          "name": "voterAddress",
          "type": "address"
        }
      ],
      "name": "VoterRegistered",
      "type": "event"
    },
    {
      "anonymous": false,
      "inputs": [],
      "name": "VotesTallied",
      "type": "event"
    },
    {
      "anonymous": false,
      "inputs": [],
      "name": "VotingSessionEnded",
      "type": "event"
    },
    {
      "anonymous": false,
      "inputs": [],
      "name": "VotingSessionStarted",
      "type": "event"
    },
    {
      "anonymous": false,
      "inputs": [
        {
          "indexed": false,
          "internalType": "enum Voting.WorkflowStatus",
          "name": "previousStatus",
          "type": "uint8"
        },
        {
          "indexed": false,
          "internalType": "enum Voting.WorkflowStatus",
          "name": "newStatus",
          "type": "uint8"
        }
      ],
      "name": "WorkflowStatusChange",
      "type": "event"
    },
    {
      "inputs": [],
      "name": "owner",
      "outputs": [
        {
          "internalType": "address",
          "name": "",
          "type": "address"
        }
      ],
      "stateMutability": "view",
      "type": "function",
      "constant": true
    },
    {
      "inputs": [],
      "name": "renounceOwnership",
      "outputs": [],
      "stateMutability": "nonpayable",
      "type": "function"
    },
    {
      "inputs": [
        {
          "internalType": "address",
          "name": "newOwner",
          "type": "address"
        }
      ],
      "name": "transferOwnership",
      "outputs": [],
      "stateMutability": "nonpayable",
      "type": "function"
    },
    {
      "inputs": [],
      "name": "winningProposalId",
      "outputs": [
        {
          "internalType": "uint256",
          "name": "",
          "type": "uint256"
        }
      ],
      "stateMutability": "view",
      "type": "function",
      "constant": true
    },
    {
      "inputs": [],
      "name": "workflowStatus",
      "outputs": [
        {
          "internalType": "enum Voting.WorkflowStatus",
          "name": "",
          "type": "uint8"
        }
      ],
      "stateMutability": "view",
      "type": "function",
      "constant": true
    },
    {
      "inputs": [
        {
          "internalType": "address",
          "name": "_address",
          "type": "address"
        }
      ],
      "name": "register",
      "outputs": [],
      "stateMutability": "nonpayable",
      "type": "function"
    },
    {
      "inputs": [],
      "name": "startProposalsRegistration",
      "outputs": [],
      "stateMutability": "nonpayable",
      "type": "function"
    },
    {
      "inputs": [],
      "name": "getProposal",
      "outputs": [
        {
          "components": [
            {
              "internalType": "string",
              "name": "description",
              "type": "string"
            },
            {
              "internalType": "uint256",
              "name": "voteCount",
              "type": "uint256"
            }
          ],
          "internalType": "struct Voting.Proposal[]",
          "name": "",
          "type": "tuple[]"
        }
      ],
      "stateMutability": "view",
      "type": "function",
      "constant": true
    },
    {
      "inputs": [],
      "name": "getWhitelist",
      "outputs": [
        {
          "internalType": "address[]",
          "name": "",
          "type": "address[]"
        }
      ],
      "stateMutability": "view",
      "type": "function",
      "constant": true
    },
    {
      "inputs": [],
      "name": "getWorkflowStatus",
      "outputs": [
        {
          "internalType": "enum Voting.WorkflowStatus",
          "name": "",
          "type": "uint8"
        }
      ],
      "stateMutability": "view",
      "type": "function",
      "constant": true
    },
    {
      "inputs": [
        {
          "internalType": "string",
          "name": "_description",
          "type": "string"
        }
      ],
      "name": "registerProposal",
      "outputs": [],
      "stateMutability": "nonpayable",
      "type": "function"
    },
    {
      "inputs": [],
      "name": "endProposalsRegistration",
      "outputs": [],
      "stateMutability": "nonpayable",
      "type": "function"
    },
    {
      "inputs": [],
      "name": "startVotingSession",
      "outputs": [],
      "stateMutability": "nonpayable",
      "type": "function"
    },
    {
      "inputs": [
        {
          "internalType": "uint256",
          "name": "_proposalId",
          "type": "uint256"
        }
      ],
      "name": "vote",
      "outputs": [],
      "stateMutability": "nonpayable",
      "type": "function"
    },
    {
      "inputs": [],
      "name": "endVotingSession",
      "outputs": [],
      "stateMutability": "nonpayable",
      "type": "function"
    },
    {
      "inputs": [],
      "name": "tally",
      "outputs": [],
      "stateMutability": "nonpayable",
      "type": "function"
    }
  ],
  "bytecode": "0x608060405234801561001057600080fd5b5060006100216100e760201b60201c565b9050806000806101000a81548173ffffffffffffffffffffffffffffffffffffffff021916908373ffffffffffffffffffffffffffffffffffffffff1602179055508073ffffffffffffffffffffffffffffffffffffffff16600073ffffffffffffffffffffffffffffffffffffffff167f8be0079c531659141344cd1fd0a4f28419497f9722a3daafe3b4186f6b6457e060405160405180910390a35060008060146101000a81548160ff021916908360058111156100dd57fe5b02179055506100ef565b600033905090565b61253f80620000ff6000396000f3fe608060405234801561001057600080fd5b50600436106101005760003560e01c8063a7bfab1611610097578063e09b8c7911610066578063e09b8c7914610217578063ee74c67814610221578063f2fde38b1461022b578063f75d64a61461024757610100565b8063a7bfab16146101b3578063b9e2bea0146101bd578063c64963c5146101db578063d01f63f5146101f957610100565b80636c297445116100d35780636c29744514610163578063715018a61461016d5780638da5cb5b14610177578063a1edffa21461019557610100565b80630121b93f146101055780632f95355b14610121578063410673e51461013d5780634420e48614610147575b600080fd5b61011f600480360381019061011a9190611a60565b610265565b005b61013b60048036038101906101369190611a1f565b610513565b005b610145610796565b005b610161600480360381019061015c91906119f6565b6109a9565b005b61016b610c68565b005b610175610e0c565b005b61017f610f79565b60405161018c919061206e565b60405180910390f35b61019d610fa2565b6040516101aa91906120f6565b60405180910390f35b6101bb610fb5565b005b6101c5611159565b6040516101d291906120d4565b60405180910390f35b6101e36112cd565b6040516101f0919061229a565b60405180910390f35b6102016112d3565b60405161020e91906120b2565b60405180910390f35b61021f611361565b005b610229611505565b005b610245600480360381019061024091906119f6565b6116a9565b005b61024f61189b565b60405161025c91906120f6565b60405180910390f35b6000600260003373ffffffffffffffffffffffffffffffffffffffff1673ffffffffffffffffffffffffffffffffffffffff16815260200190815260200160002054116102e7576040517f08c379a00000000000000000000000000000000000000000000000000000000081526004016102de9061227a565b60405180910390fd5b600360058111156102f457fe5b600060149054906101000a900460ff16600581111561030f57fe5b1461034f576040517f08c379a0000000000000000000000000000000000000000000000000000000008152600401610346906121fa565b60405180910390fd5b60006001600260003373ffffffffffffffffffffffffffffffffffffffff1673ffffffffffffffffffffffffffffffffffffffff1681526020019081526020016000205403905060001515600182815481106103a757fe5b906000526020600020906003020160000160019054906101000a900460ff16151514610408576040517f08c379a00000000000000000000000000000000000000000000000000000000081526004016103ff9061219a565b60405180910390fd5b600380549050821061044f576040517f08c379a0000000000000000000000000000000000000000000000000000000008152600401610446906121ba565b60405180910390fd5b816001828154811061045d57fe5b906000526020600020906003020160010181905550600180828154811061048057fe5b906000526020600020906003020160000160016101000a81548160ff021916908315150217905550600382815481106104b557fe5b9060005260206000209060020201600101600081548092919060010191905055507f4d99b957a2bc29a30ebd96a7be8e68fe50a3c701db28a91436490b7d53870ca43383604051610507929190612089565b60405180910390a15050565b6000600260003373ffffffffffffffffffffffffffffffffffffffff1673ffffffffffffffffffffffffffffffffffffffff1681526020019081526020016000205411610595576040517f08c379a000000000000000000000000000000000000000000000000000000000815260040161058c9061227a565b60405180910390fd5b600160058111156105a257fe5b600060149054906101000a900460ff1660058111156105bd57fe5b146105fd576040517f08c379a00000000000000000000000000000000000000000000000000000000081526004016105f49061221a565b60405180910390fd5b60006001600260003373ffffffffffffffffffffffffffffffffffffffff1673ffffffffffffffffffffffffffffffffffffffff16815260200190815260200160002054039050600015156001828154811061065557fe5b906000526020600020906003020160020160009054906101000a900460ff161515146106b6576040517f08c379a00000000000000000000000000000000000000000000000000000000081526004016106ad906121da565b60405180910390fd5b600360405180604001604052808481526020016000815250908060018154018082558091505060019003906000526020600020906002020160009091909190915060008201518160000190805190602001906107139291906118b9565b50602082015181600101555050600180828154811061072e57fe5b906000526020600020906003020160020160006101000a81548160ff0219169083151502179055507f92e393e9b54e2f801d3ea4beb0c5e71a21cc34a5d34b77d0fb8a3aa1650dc18f60038054905060405161078a919061229a565b60405180910390a15050565b61079e6118b1565b73ffffffffffffffffffffffffffffffffffffffff166107bc610f79565b73ffffffffffffffffffffffffffffffffffffffff1614610845576040517f08c379a00000000000000000000000000000000000000000000000000000000081526004018080602001828103825260208152602001807f4f776e61626c653a2063616c6c6572206973206e6f7420746865206f776e657281525060200191505060405180910390fd5b6004600581111561085257fe5b600060149054906101000a900460ff16600581111561086d57fe5b146108ad576040517f08c379a00000000000000000000000000000000000000000000000000000000081526004016108a49061225a565b60405180910390fd5b6000805b60038054905081101561091a5781600382815481106108cc57fe5b906000526020600020906002020160010154111561090d5780600581905550600381815481106108f857fe5b90600052602060002090600202016001015491505b80806001019150506108b1565b506005600060146101000a81548160ff0219169083600581111561093a57fe5b02179055507f0e5e95ff8725ab3e7a4b6b59998a4c344c2aa8d1485f5e60cb7f337768e6134760405160405180910390a17f0a97a4ee45751e2abf3e4fc8946939630b11b371ea8ae39ccdc3056e98f5cc3f6004600560405161099e929190612111565b60405180910390a150565b6109b16118b1565b73ffffffffffffffffffffffffffffffffffffffff166109cf610f79565b73ffffffffffffffffffffffffffffffffffffffff1614610a58576040517f08c379a00000000000000000000000000000000000000000000000000000000081526004018080602001828103825260208152602001807f4f776e61626c653a2063616c6c6572206973206e6f7420746865206f776e657281525060200191505060405180910390fd5b60006005811115610a6557fe5b600060149054906101000a900460ff166005811115610a8057fe5b14610ac0576040517f08c379a0000000000000000000000000000000000000000000000000000000008152600401610ab79061223a565b60405180910390fd5b600160405180608001604052806001151581526020016000151581526020016000815260200160001515815250908060018154018082558091505060019003906000526020600020906003020160009091909190915060008201518160000160006101000a81548160ff02191690831515021790555060208201518160000160016101000a81548160ff0219169083151502179055506040820151816001015560608201518160020160006101000a81548160ff02191690831515021790555050506004819080600181540180825580915050600190039060005260206000200160009091909190916101000a81548173ffffffffffffffffffffffffffffffffffffffff021916908373ffffffffffffffffffffffffffffffffffffffff160217905550600180549050600260008373ffffffffffffffffffffffffffffffffffffffff1673ffffffffffffffffffffffffffffffffffffffff168152602001908152602001600020819055507fb6be2187d059cc2a55fe29e0e503b566e1e0f8c8780096e185429350acffd3dd81604051610c5d919061206e565b60405180910390a150565b610c706118b1565b73ffffffffffffffffffffffffffffffffffffffff16610c8e610f79565b73ffffffffffffffffffffffffffffffffffffffff1614610d17576040517f08c379a00000000000000000000000000000000000000000000000000000000081526004018080602001828103825260208152602001807f4f776e61626c653a2063616c6c6572206973206e6f7420746865206f776e657281525060200191505060405180910390fd5b60016005811115610d2457fe5b600060149054906101000a900460ff166005811115610d3f57fe5b14610d7f576040517f08c379a0000000000000000000000000000000000000000000000000000000008152600401610d769061221a565b60405180910390fd5b6002600060146101000a81548160ff02191690836005811115610d9e57fe5b02179055507f240cb87b2e4df4c318e72bd714d45a9cad60249e883ff56b1fffd83a4595a8fa60405160405180910390a17f0a97a4ee45751e2abf3e4fc8946939630b11b371ea8ae39ccdc3056e98f5cc3f60016002604051610e02929190612111565b60405180910390a1565b610e146118b1565b73ffffffffffffffffffffffffffffffffffffffff16610e32610f79565b73ffffffffffffffffffffffffffffffffffffffff1614610ebb576040517f08c379a00000000000000000000000000000000000000000000000000000000081526004018080602001828103825260208152602001807f4f776e61626c653a2063616c6c6572206973206e6f7420746865206f776e657281525060200191505060405180910390fd5b600073ffffffffffffffffffffffffffffffffffffffff1660008054906101000a900473ffffffffffffffffffffffffffffffffffffffff1673ffffffffffffffffffffffffffffffffffffffff167f8be0079c531659141344cd1fd0a4f28419497f9722a3daafe3b4186f6b6457e060405160405180910390a360008060006101000a81548173ffffffffffffffffffffffffffffffffffffffff021916908373ffffffffffffffffffffffffffffffffffffffff160217905550565b60008060009054906101000a900473ffffffffffffffffffffffffffffffffffffffff16905090565b600060149054906101000a900460ff1681565b610fbd6118b1565b73ffffffffffffffffffffffffffffffffffffffff16610fdb610f79565b73ffffffffffffffffffffffffffffffffffffffff1614611064576040517f08c379a00000000000000000000000000000000000000000000000000000000081526004018080602001828103825260208152602001807f4f776e61626c653a2063616c6c6572206973206e6f7420746865206f776e657281525060200191505060405180910390fd5b6003600581111561107157fe5b600060149054906101000a900460ff16600581111561108c57fe5b146110cc576040517f08c379a00000000000000000000000000000000000000000000000000000000081526004016110c3906121fa565b60405180910390fd5b6004600060146101000a81548160ff021916908360058111156110eb57fe5b02179055507fc379d349a6301baf50fb2f98d829f4ae10b1cdb7c66f4e4d8117302df7b8cd4c60405160405180910390a17f0a97a4ee45751e2abf3e4fc8946939630b11b371ea8ae39ccdc3056e98f5cc3f6003600460405161114f929190612111565b60405180910390a1565b60606000600581111561116857fe5b600060149054906101000a900460ff16600581111561118357fe5b14156111c4576040517f08c379a00000000000000000000000000000000000000000000000000000000081526004016111bb9061213a565b60405180910390fd5b6003805480602002602001604051908101604052809291908181526020016000905b828210156112c45783829060005260206000209060020201604051806040016040529081600082018054600181600116156101000203166002900480601f0160208091040260200160405190810160405280929190818152602001828054600181600116156101000203166002900480156112a25780601f10611277576101008083540402835291602001916112a2565b820191906000526020600020905b81548152906001019060200180831161128557829003601f168201915b50505050508152602001600182015481525050815260200190600101906111e6565b50505050905090565b60055481565b6060600480548060200260200160405190810160405280929190818152602001828054801561135757602002820191906000526020600020905b8160009054906101000a900473ffffffffffffffffffffffffffffffffffffffff1673ffffffffffffffffffffffffffffffffffffffff168152602001906001019080831161130d575b5050505050905090565b6113696118b1565b73ffffffffffffffffffffffffffffffffffffffff16611387610f79565b73ffffffffffffffffffffffffffffffffffffffff1614611410576040517f08c379a00000000000000000000000000000000000000000000000000000000081526004018080602001828103825260208152602001807f4f776e61626c653a2063616c6c6572206973206e6f7420746865206f776e657281525060200191505060405180910390fd5b6000600581111561141d57fe5b600060149054906101000a900460ff16600581111561143857fe5b14611478576040517f08c379a000000000000000000000000000000000000000000000000000000000815260040161146f9061215a565b60405180910390fd5b6001600060146101000a81548160ff0219169083600581111561149757fe5b02179055507f344c25562921d075a298d34b6dd1fd00d36ff293974539dfd4a8c625d9f0064c60405160405180910390a17f0a97a4ee45751e2abf3e4fc8946939630b11b371ea8ae39ccdc3056e98f5cc3f600060016040516114fb929190612111565b60405180910390a1565b61150d6118b1565b73ffffffffffffffffffffffffffffffffffffffff1661152b610f79565b73ffffffffffffffffffffffffffffffffffffffff16146115b4576040517f08c379a00000000000000000000000000000000000000000000000000000000081526004018080602001828103825260208152602001807f4f776e61626c653a2063616c6c6572206973206e6f7420746865206f776e657281525060200191505060405180910390fd5b600260058111156115c157fe5b600060149054906101000a900460ff1660058111156115dc57fe5b1461161c576040517f08c379a00000000000000000000000000000000000000000000000000000000081526004016116139061217a565b60405180910390fd5b6003600060146101000a81548160ff0219169083600581111561163b57fe5b02179055507f1b8e19a458c1bcd88553332c518cc5c4e2d5793e712ee766d4f1c14f672ef1f560405160405180910390a17f0a97a4ee45751e2abf3e4fc8946939630b11b371ea8ae39ccdc3056e98f5cc3f6002600360405161169f929190612111565b60405180910390a1565b6116b16118b1565b73ffffffffffffffffffffffffffffffffffffffff166116cf610f79565b73ffffffffffffffffffffffffffffffffffffffff1614611758576040517f08c379a00000000000000000000000000000000000000000000000000000000081526004018080602001828103825260208152602001807f4f776e61626c653a2063616c6c6572206973206e6f7420746865206f776e657281525060200191505060405180910390fd5b600073ffffffffffffffffffffffffffffffffffffffff168173ffffffffffffffffffffffffffffffffffffffff1614156117de576040517f08c379a00000000000000000000000000000000000000000000000000000000081526004018080602001828103825260268152602001806124e46026913960400191505060405180910390fd5b8073ffffffffffffffffffffffffffffffffffffffff1660008054906101000a900473ffffffffffffffffffffffffffffffffffffffff1673ffffffffffffffffffffffffffffffffffffffff167f8be0079c531659141344cd1fd0a4f28419497f9722a3daafe3b4186f6b6457e060405160405180910390a3806000806101000a81548173ffffffffffffffffffffffffffffffffffffffff021916908373ffffffffffffffffffffffffffffffffffffffff16021790555050565b60008060149054906101000a900460ff16905090565b600033905090565b828054600181600116156101000203166002900490600052602060002090601f0160209004810192826118ef5760008555611936565b82601f1061190857805160ff1916838001178555611936565b82800160010185558215611936579182015b8281111561193557825182559160200191906001019061191a565b5b5090506119439190611947565b5090565b5b80821115611960576000816000905550600101611948565b5090565b6000611977611972846122e6565b6122b5565b90508281526020810184848401111561198f57600080fd5b61199a84828561244c565b509392505050565b6000813590506119b1816124b5565b92915050565b600082601f8301126119c857600080fd5b81356119d8848260208601611964565b91505092915050565b6000813590506119f0816124cc565b92915050565b600060208284031215611a0857600080fd5b6000611a16848285016119a2565b91505092915050565b600060208284031215611a3157600080fd5b600082013567ffffffffffffffff811115611a4b57600080fd5b611a57848285016119b7565b91505092915050565b600060208284031215611a7257600080fd5b6000611a80848285016119e1565b91505092915050565b6000611a958383611ac4565b60208301905092915050565b6000611aad8383612013565b905092915050565b611abe81612404565b82525050565b611acd816123b5565b82525050565b611adc816123b5565b82525050565b6000611aed82612336565b611af78185612371565b9350611b0283612316565b8060005b83811015611b33578151611b1a8882611a89565b9750611b2583612357565b925050600181019050611b06565b5085935050505092915050565b6000611b4b82612341565b611b558185612382565b935083602082028501611b6785612326565b8060005b85811015611ba35784840389528151611b848582611aa1565b9450611b8f83612364565b925060208a01995050600181019050611b6b565b50829750879550505050505092915050565b611bbe81612416565b82525050565b6000611bcf8261234c565b611bd98185612393565b9350611be981856020860161245b565b611bf281612490565b840191505092915050565b6000611c0a603d836123a4565b91507f4c61207068617365206427656e72656769737472656d656e742064657320707260008301527f6f706f736974696f6e73206e27612070617320636f6d6d656e636520210000006020830152604082019050919050565b6000611c706042836123a4565b91507f4c61207068617365206427656e72656769737472656d656e742064657320707260008301527f6f706f736974696f6e73206e65207065757420657472652064656d617272656560208301527f20210000000000000000000000000000000000000000000000000000000000006040830152606082019050919050565b6000611cfc602a836123a4565b91507f4c612073657373696f6e20646520766f7465206e65207065757420657472652060008301527f64656d61727265652021000000000000000000000000000000000000000000006020830152604082019050919050565b6000611d626015836123a4565b91507f566f7573206176657a2064656a6120766f7465202100000000000000000000006000830152602082019050919050565b6000611da2601a836123a4565b91507f49642064652070726f706f736974696f6e20696e76616c6964650000000000006000830152602082019050919050565b6000611de26025836123a4565b91507f566f7573206176657a2064656a61206661697420756e652070726f706f73697460008301527f696f6e20210000000000000000000000000000000000000000000000000000006020830152604082019050919050565b6000611e486027836123a4565b91507f4c612073657373696f6e20646520766f7465206e276573742070617320656e2060008301527f636f7572732021000000000000000000000000000000000000000000000000006020830152604082019050919050565b6000611eae603f836123a4565b91507f4c61207068617365206427656e72656769737472656d656e742064657320707260008301527f6f706f736974696f6e73206e276573742070617320656e20636f7572732021006020830152604082019050919050565b6000611f146036836123a4565b91507f4c61207068617365206427656e72656769737472656d656e742064657320656c60008301527f6563746575727320657374207465726d696e65652021000000000000000000006020830152604082019050919050565b6000611f7a6027836123a4565b91507f4c612073657373696f6e20646520766f7465206e27657374207061732074657260008301527f6d696e65652021000000000000000000000000000000000000000000000000006020830152604082019050919050565b6000611fe06019836123a4565b91507f566f7573206e27657465732070617320696e73637269742021000000000000006000830152602082019050919050565b600060408301600083015184820360008601526120308282611bc4565b91505060208301516120456020860182612050565b508091505092915050565b612059816123fa565b82525050565b612068816123fa565b82525050565b60006020820190506120836000830184611ad3565b92915050565b600060408201905061209e6000830185611ab5565b6120ab602083018461205f565b9392505050565b600060208201905081810360008301526120cc8184611ae2565b905092915050565b600060208201905081810360008301526120ee8184611b40565b905092915050565b600060208201905061210b6000830184611bb5565b92915050565b60006040820190506121266000830185611bb5565b6121336020830184611bb5565b9392505050565b6000602082019050818103600083015261215381611bfd565b9050919050565b6000602082019050818103600083015261217381611c63565b9050919050565b6000602082019050818103600083015261219381611cef565b9050919050565b600060208201905081810360008301526121b381611d55565b9050919050565b600060208201905081810360008301526121d381611d95565b9050919050565b600060208201905081810360008301526121f381611dd5565b9050919050565b6000602082019050818103600083015261221381611e3b565b9050919050565b6000602082019050818103600083015261223381611ea1565b9050919050565b6000602082019050818103600083015261225381611f07565b9050919050565b6000602082019050818103600083015261227381611f6d565b9050919050565b6000602082019050818103600083015261229381611fd3565b9050919050565b60006020820190506122af600083018461205f565b92915050565b6000604051905081810181811067ffffffffffffffff821117156122dc576122db61248e565b5b8060405250919050565b600067ffffffffffffffff8211156123015761230061248e565b5b601f19601f8301169050602081019050919050565b6000819050602082019050919050565b6000819050602082019050919050565b600081519050919050565b600081519050919050565b600081519050919050565b6000602082019050919050565b6000602082019050919050565b600082825260208201905092915050565b600082825260208201905092915050565b600082825260208201905092915050565b600082825260208201905092915050565b60006123c0826123da565b9050919050565b60008190506123d5826124a1565b919050565b600073ffffffffffffffffffffffffffffffffffffffff82169050919050565b6000819050919050565b600061240f82612428565b9050919050565b6000612421826123c7565b9050919050565b60006124338261243a565b9050919050565b6000612445826123da565b9050919050565b82818337600083830152505050565b60005b8381101561247957808201518184015260208101905061245e565b83811115612488576000848401525b50505050565bfe5b6000601f19601f8301169050919050565b600681106124b2576124b161248e565b5b50565b6124be816123b5565b81146124c957600080fd5b50565b6124d5816123fa565b81146124e057600080fd5b5056fe4f776e61626c653a206e6577206f776e657220697320746865207a65726f2061646472657373a264697066735822122085db327ff7d36ed3050d961611a4f9404d44af6e2916a5ef9288fc515a99980164736f6c63430007060033",
  "immutableReferences": {},
  "source": "// SPDX-License-Identifier: MIT\npragma solidity >=0.6.0 <0.8.0;\npragma experimental ABIEncoderV2;\n\nimport \"./Ownable.sol\";\n\n/**\n * @title Voting\n * @author groupe 5 : yann, louisplessis, oudom\n * @notice Dfi 1\n * @dev administrateur du vote = owner\n */\n contract Voting is Ownable {\n    // Les diffrentes phases du vote se succdant\n    enum WorkflowStatus {\n        RegisteringVoters, // 0\n        ProposalsRegistrationStarted, // 1\n        ProposalsRegistrationEnded, // 2\n        VotingSessionStarted, // 3\n        VotingSessionEnded, // 4\n        VotesTallied // 5\n    }\n\n    event VoterRegistered(address voterAddress);\n    event ProposalsRegistrationStarted();\n    event ProposalsRegistrationEnded();\n    event ProposalRegistered(uint proposalId);\n    event VotingSessionStarted();\n    event VotingSessionEnded();\n    event Voted (address voter, uint proposalId);\n    event VotesTallied();\n    event WorkflowStatusChange(WorkflowStatus previousStatus, WorkflowStatus newStatus);\n\n    struct Voter {\n        bool isRegistered;\n        bool hasVoted;\n        uint votedProposalId;\n        bool hasProposed;\n    }\n\n    struct Proposal {\n        string description;\n        uint voteCount;\n    }\n\n    // status du contrat\n    WorkflowStatus public workflowStatus;\n    // pour stocker les lecteurs et leurs votes\n    Voter[] private voters;\n    // pour enregistrer les lecteurs (adresse Ethereum => id, id commence  1)\n    mapping (address => uint) private whitelist;\n    // pour enregistrer les propositions\n    Proposal[] private proposals;\n      // pour get all users in whitelist, impossible de return un mapping?\n    address[] private whitelistArray;\n    // index de la proposition ayant reu le plus de votes, commence  0\n    uint public winningProposalId;\n\n    modifier isWhitelisted() {\n        require(whitelist[msg.sender] > 0, \"Vous n\\'etes pas inscrit !\");\n        _;\n    }\n\n    constructor() public {\n        workflowStatus = WorkflowStatus.RegisteringVoters;\n    }\n\n   /**\n    * @notice L'administrateur du vote enregistre une liste blanche d'lecteurs identifis par leur adresse Ethereum.\n    */\n    function register(address _address) public onlyOwner {\n        require(workflowStatus == WorkflowStatus.RegisteringVoters, \"La phase d\\'enregistrement des electeurs est terminee !\");\n      //ajouter le fait de ne pas pouvoir ajouter une adr 2x\n            voters.push(Voter(true, false, 0, false));\n            whitelistArray.push(_address);\n            whitelist[_address] = voters.length;\n            emit VoterRegistered(_address); \n        \n    }\n\n    /**\n     * @notice L'administrateur du vote commence la session d'enregistrement de la proposition.\n     */\n    function startProposalsRegistration() public  onlyOwner {\n        require(workflowStatus == WorkflowStatus.RegisteringVoters, \"La phase d\\'enregistrement des propositions ne peut etre demarree !\");\n        workflowStatus = WorkflowStatus.ProposalsRegistrationStarted;\n        emit ProposalsRegistrationStarted();\n        emit WorkflowStatusChange(WorkflowStatus.RegisteringVoters, WorkflowStatus.ProposalsRegistrationStarted);\n    }\n\n     /**\n     * @notice Permet de rcuprer la liste des propositions.\n     */\n    function getProposal() public  view returns (Proposal[] memory){\n        require(workflowStatus != WorkflowStatus.RegisteringVoters, \"La phase d\\'enregistrement des propositions n\\'a pas commence !\");\n        return proposals;\n    }\n\n      /**\n     * @notice Permet de rcuprer la liste des propositions.\n     */\n    function getWhitelist() public  view returns (address[] memory){\n       // require(workflowStatus != WorkflowStatus.RegisteringVoters, \"La phase d\\'enregistrement des propositions n\\'a pas commence !\");\n        return whitelistArray;\n    }\n\n\n    function getWorkflowStatus() public view returns (WorkflowStatus) {\n         return workflowStatus;       \n     }\n\n    /**\n     * @notice Les lecteurs inscrits sont autoriss  enregistrer leurs propositions pendant que la session d'enregistrement est active.\n     */\n    function registerProposal(string memory _description) public isWhitelisted {\n        require(workflowStatus == WorkflowStatus.ProposalsRegistrationStarted, \"La phase d\\'enregistrement des propositions n\\'est pas en cours !\");\n        uint voterId = whitelist[msg.sender] - 1;\n        require(voters[voterId].hasProposed == false, \"Vous avez deja fait une proposition !\");\n        proposals.push(Proposal(_description, 0));\n        voters[voterId].hasProposed = true;\n        emit ProposalRegistered(proposals.length);\n    }\n\n    /**\n     * @notice  L'administrateur de vote met fin  la session d'enregistrement des propositions.\n     */\n    function endProposalsRegistration() public  onlyOwner {\n        require(workflowStatus == WorkflowStatus.ProposalsRegistrationStarted, \"La phase d'enregistrement des propositions n'est pas en cours !\");\n        workflowStatus = WorkflowStatus.ProposalsRegistrationEnded;\n        emit ProposalsRegistrationEnded();\n        emit WorkflowStatusChange(WorkflowStatus.ProposalsRegistrationStarted, WorkflowStatus.ProposalsRegistrationEnded);\n    }\n\n    /**\n     * @notice L'administrateur du vote commence la session de vote.\n     */\n    function startVotingSession() public  onlyOwner {\n        require(workflowStatus == WorkflowStatus.ProposalsRegistrationEnded, \"La session de vote ne peut etre demarree !\");\n        workflowStatus = WorkflowStatus.VotingSessionStarted;\n        emit VotingSessionStarted();\n        emit WorkflowStatusChange(WorkflowStatus.ProposalsRegistrationEnded, WorkflowStatus.VotingSessionStarted);\n    }\n\n    /**\n     * @notice Les lecteurs inscrits votent pour leurs propositions prfres.\n     */\n    function vote(uint _proposalId) public isWhitelisted {\n        require(workflowStatus == WorkflowStatus.VotingSessionStarted, \"La session de vote n'est pas en cours !\");\n        uint voterId = whitelist[msg.sender] - 1;\n        require(voters[voterId].hasVoted == false, \"Vous avez deja vote !\");\n        require(_proposalId < proposals.length , \"Id de proposition invalide\");\n        voters[voterId].votedProposalId = _proposalId;\n        voters[voterId].hasVoted = true;\n        proposals[_proposalId].voteCount++;\n        emit Voted(msg.sender, _proposalId);\n    }\n\n    /**\n     * @notice L'administrateur du vote met fin  la session de vote.\n     */\n    function endVotingSession() public  onlyOwner {\n        require(workflowStatus == WorkflowStatus.VotingSessionStarted, \"La session de vote n\\'est pas en cours !\");\n        workflowStatus = WorkflowStatus.VotingSessionEnded;\n        emit VotingSessionEnded();\n        emit WorkflowStatusChange(WorkflowStatus.VotingSessionStarted, WorkflowStatus.VotingSessionEnded);\n    }\n\n    /**\n     * @notice L'administrateur du vote comptabilise les votes.\n     */\n    function tally() public onlyOwner {\n        require(workflowStatus == WorkflowStatus.VotingSessionEnded, \"La session de vote n\\'est pas terminee !\");\n        uint maxVoteCount = 0;\n        for (uint i = 0; i < proposals.length; i++) {\n            if (proposals[i].voteCount > maxVoteCount) {\n                winningProposalId = i;\n                maxVoteCount = proposals[i].voteCount;\n            }\n        }\n        workflowStatus = WorkflowStatus.VotesTallied;\n        emit VotesTallied();\n        emit WorkflowStatusChange(WorkflowStatus.VotingSessionEnded, WorkflowStatus.VotesTallied);\n    }\n}\n",
  "sourcePath": "/home/oudom/voting-react/contracts/Voting.sol",
  "compiler": {
    "name": "solc",
    "version": "0.7.6+commit.7338295f.Emscripten.clang"
  },
  "schemaVersion": "3.3.3",
  "updatedAt": "2021-03-18T16:26:19.176Z",
  "networkType": "ethereum",
  "devdoc": {
    "author": "groupe 5 : yann, louisplessis, oudom",
    "details": "administrateur du vote = owner",
    "kind": "dev",
    "methods": {
      "owner()": {
        "details": "Returns the address of the current owner."
      },
      "renounceOwnership()": {
        "details": "Leaves the contract without owner. It will not be possible to call `onlyOwner` functions anymore. Can only be called by the current owner. NOTE: Renouncing ownership will leave the contract without an owner, thereby removing any functionality that is only available to the owner."
      },
      "transferOwnership(address)": {
        "details": "Transfers ownership of the contract to a new account (`newOwner`). Can only be called by the current owner."
      }
    },
    "title": "Voting",
    "version": 1
  },
  "userdoc": {
    "kind": "user",
    "methods": {
      "endProposalsRegistration()": {
        "notice": "L'administrateur de vote met fin  la session d'enregistrement des propositions."
      },
      "endVotingSession()": {
        "notice": "L'administrateur du vote met fin  la session de vote."
      },
      "getProposal()": {
        "notice": "Permet de rcuprer la liste des propositions."
      },
      "getWhitelist()": {
        "notice": "Permet de rcuprer la liste des propositions."
      },
      "register(address)": {
        "notice": "L'administrateur du vote enregistre une liste blanche d'lecteurs identifis par leur adresse Ethereum."
      },
      "registerProposal(string)": {
        "notice": "Les lecteurs inscrits sont autoriss  enregistrer leurs propositions pendant que la session d'enregistrement est active."
      },
      "startProposalsRegistration()": {
        "notice": "L'administrateur du vote commence la session d'enregistrement de la proposition."
      },
      "startVotingSession()": {
        "notice": "L'administrateur du vote commence la session de vote."
      },
      "tally()": {
        "notice": "L'administrateur du vote comptabilise les votes."
      },
      "vote(uint256)": {
        "notice": "Les lecteurs inscrits votent pour leurs propositions prfres."
      }
    },
    "notice": "Dfi 1",
    "version": 1
  }
}