{
  "contractName": "Voting",
  "abi": [
    {
      "inputs": [],
      "stateMutability": "nonpayable",
      "type": "constructor"
    },
    {
      "anonymous": false,
      "inputs": [
        {
          "indexed": false,
          "internalType": "uint256",
          "name": "proposalId",
          "type": "uint256"
        }
      ],
      "name": "ProposalRegistered",
      "type": "event"
    },
    {
      "anonymous": false,
      "inputs": [],
      "name": "ProposalsRegistrationEnded",
      "type": "event"
    },
    {
      "anonymous": false,
      "inputs": [],
      "name": "ProposalsRegistrationStarted",
      "type": "event"
    },
    {
      "anonymous": false,
      "inputs": [
        {
          "indexed": false,
          "internalType": "address",
          "name": "voter",
          "type": "address"
        },
        {
          "indexed": false,
          "internalType": "uint256",
          "name": "proposalId",
          "type": "uint256"
        }
      ],
      "name": "Voted",
      "type": "event"
    },
    {
      "anonymous": false,
      "inputs": [
        {
          "indexed": false,
          "internalType": "address",
          "name": "voterAddress",
          "type": "address"
        }
      ],
      "name": "VoterRegistered",
      "type": "event"
    },
    {
      "anonymous": false,
      "inputs": [],
      "name": "VotesTallied",
      "type": "event"
    },
    {
      "anonymous": false,
      "inputs": [],
      "name": "VotingSessionEnded",
      "type": "event"
    },
    {
      "anonymous": false,
      "inputs": [],
      "name": "VotingSessionStarted",
      "type": "event"
    },
    {
      "anonymous": false,
      "inputs": [
        {
          "indexed": false,
          "internalType": "enum Voting.WorkflowStatus",
          "name": "previousStatus",
          "type": "uint8"
        },
        {
          "indexed": false,
          "internalType": "enum Voting.WorkflowStatus",
          "name": "newStatus",
          "type": "uint8"
        }
      ],
      "name": "WorkflowStatusChange",
      "type": "event"
    },
    {
      "inputs": [],
      "name": "winningProposalId",
      "outputs": [
        {
          "internalType": "uint256",
          "name": "",
          "type": "uint256"
        }
      ],
      "stateMutability": "view",
      "type": "function",
      "constant": true
    },
    {
      "inputs": [],
      "name": "workflowStatus",
      "outputs": [
        {
          "internalType": "enum Voting.WorkflowStatus",
          "name": "",
          "type": "uint8"
        }
      ],
      "stateMutability": "view",
      "type": "function",
      "constant": true
    },
    {
      "inputs": [],
      "name": "owner",
      "outputs": [
        {
          "internalType": "address",
          "name": "",
          "type": "address"
        }
      ],
      "stateMutability": "view",
      "type": "function",
      "constant": true
    },
    {
      "inputs": [
        {
          "internalType": "address",
          "name": "addr",
          "type": "address"
        }
      ],
      "name": "register",
      "outputs": [],
      "stateMutability": "nonpayable",
      "type": "function"
    },
    {
      "inputs": [],
      "name": "startProposalsRegistration",
      "outputs": [],
      "stateMutability": "nonpayable",
      "type": "function"
    },
    {
      "inputs": [],
      "name": "getProposal",
      "outputs": [
        {
          "components": [
            {
              "internalType": "string",
              "name": "description",
              "type": "string"
            },
            {
              "internalType": "uint256",
              "name": "voteCount",
              "type": "uint256"
            }
          ],
          "internalType": "struct Voting.Proposal[]",
          "name": "",
          "type": "tuple[]"
        }
      ],
      "stateMutability": "view",
      "type": "function",
      "constant": true
    },
    {
      "inputs": [],
      "name": "getWhitelist",
      "outputs": [
        {
          "internalType": "address[]",
          "name": "",
          "type": "address[]"
        }
      ],
      "stateMutability": "view",
      "type": "function",
      "constant": true
    },
    {
      "inputs": [],
      "name": "getWorkflowStatus",
      "outputs": [
        {
          "internalType": "enum Voting.WorkflowStatus",
          "name": "",
          "type": "uint8"
        }
      ],
      "stateMutability": "view",
      "type": "function",
      "constant": true
    },
    {
      "inputs": [
        {
          "internalType": "string",
          "name": "description",
          "type": "string"
        }
      ],
      "name": "registerProposal",
      "outputs": [],
      "stateMutability": "nonpayable",
      "type": "function"
    },
    {
      "inputs": [],
      "name": "endProposalsRegistration",
      "outputs": [],
      "stateMutability": "nonpayable",
      "type": "function"
    },
    {
      "inputs": [],
      "name": "startVotingSession",
      "outputs": [],
      "stateMutability": "nonpayable",
      "type": "function"
    },
    {
      "inputs": [
        {
          "internalType": "uint256",
          "name": "proposalId",
          "type": "uint256"
        }
      ],
      "name": "vote",
      "outputs": [],
      "stateMutability": "nonpayable",
      "type": "function"
    },
    {
      "inputs": [],
      "name": "endVotingSession",
      "outputs": [],
      "stateMutability": "nonpayable",
      "type": "function"
    },
    {
      "inputs": [],
      "name": "tally",
      "outputs": [],
      "stateMutability": "nonpayable",
      "type": "function"
    }
  ],
  "bytecode": "0x608060405234801561001057600080fd5b5033600560006101000a81548173ffffffffffffffffffffffffffffffffffffffff021916908373ffffffffffffffffffffffffffffffffffffffff1602179055506120c3806100616000396000f3fe608060405234801561001057600080fd5b50600436106100ea5760003560e01c8063a7bfab161161008c578063d01f63f511610066578063d01f63f5146101d9578063e09b8c79146101f7578063ee74c67814610201578063f75d64a61461020b576100ea565b8063a7bfab1614610193578063b9e2bea01461019d578063c64963c5146101bb576100ea565b80634420e486116100c85780634420e486146101315780636c2974451461014d5780638da5cb5b14610157578063a1edffa214610175576100ea565b80630121b93f146100ef5780632f95355b1461010b578063410673e514610127575b600080fd5b61010960048036038101906101049190611679565b610229565b005b61012560048036038101906101209190611638565b610501565b005b61012f61078a565b005b61014b6004803603810190610146919061160f565b61098c565b005b610155610c87565b005b61015f610e0a565b60405161016c9190611c09565b60405180910390f35b61017d610e34565b60405161018a9190611c91565b60405180910390f35b61019b610e46565b005b6101a5610fc9565b6040516101b29190611c6f565b60405180910390f35b6101c361113c565b6040516101d09190611e55565b60405180910390f35b6101e1611142565b6040516101ee9190611c4d565b60405180910390f35b6101ff6111d0565b005b610209611353565b005b6102136114d6565b6040516102209190611c91565b60405180910390f35b600160003373ffffffffffffffffffffffffffffffffffffffff1673ffffffffffffffffffffffffffffffffffffffff16815260200190815260200160002060000160009054906101000a900460ff166102b8576040517f08c379a00000000000000000000000000000000000000000000000000000000081526004016102af90611d95565b60405180910390fd5b600360058111156102c557fe5b6000809054906101000a900460ff1660058111156102df57fe5b1461031f576040517f08c379a000000000000000000000000000000000000000000000000000000000815260040161031690611cf5565b60405180910390fd5b600160003373ffffffffffffffffffffffffffffffffffffffff1673ffffffffffffffffffffffffffffffffffffffff16815260200190815260200160002060000160019054906101000a900460ff16156103af576040517f08c379a00000000000000000000000000000000000000000000000000000000081526004016103a690611db5565b60405180910390fd5b60028054905081106103f6576040517f08c379a00000000000000000000000000000000000000000000000000000000081526004016103ed90611d55565b60405180910390fd5b80600160003373ffffffffffffffffffffffffffffffffffffffff1673ffffffffffffffffffffffffffffffffffffffff1681526020019081526020016000206001018190555060018060003373ffffffffffffffffffffffffffffffffffffffff1673ffffffffffffffffffffffffffffffffffffffff16815260200190815260200160002060000160016101000a81548160ff021916908315150217905550600281815481106104a457fe5b9060005260206000209060020201600101600081548092919060010191905055507f4d99b957a2bc29a30ebd96a7be8e68fe50a3c701db28a91436490b7d53870ca433826040516104f6929190611c24565b60405180910390a150565b600160003373ffffffffffffffffffffffffffffffffffffffff1673ffffffffffffffffffffffffffffffffffffffff16815260200190815260200160002060000160009054906101000a900460ff16610590576040517f08c379a000000000000000000000000000000000000000000000000000000000815260040161058790611d95565b60405180910390fd5b6001600581111561059d57fe5b6000809054906101000a900460ff1660058111156105b757fe5b146105f7576040517f08c379a00000000000000000000000000000000000000000000000000000000081526004016105ee90611e15565b60405180910390fd5b600160003373ffffffffffffffffffffffffffffffffffffffff1673ffffffffffffffffffffffffffffffffffffffff16815260200190815260200160002060000160029054906101000a900460ff1615610687576040517f08c379a000000000000000000000000000000000000000000000000000000000815260040161067e90611cd5565b60405180910390fd5b600260405180604001604052808381526020016000815250908060018154018082558091505060019003906000526020600020906002020160009091909190915060008201518160000190805190602001906106e49291906114ec565b5060208201518160010155505060018060003373ffffffffffffffffffffffffffffffffffffffff1673ffffffffffffffffffffffffffffffffffffffff16815260200190815260200160002060000160026101000a81548160ff0219169083151502179055507f92e393e9b54e2f801d3ea4beb0c5e71a21cc34a5d34b77d0fb8a3aa1650dc18f60028054905060405161077f9190611e55565b60405180910390a150565b3373ffffffffffffffffffffffffffffffffffffffff16600560009054906101000a900473ffffffffffffffffffffffffffffffffffffffff1673ffffffffffffffffffffffffffffffffffffffff161461081a576040517f08c379a000000000000000000000000000000000000000000000000000000000815260040161081190611df5565b60405180910390fd5b6004600581111561082757fe5b6000809054906101000a900460ff16600581111561084157fe5b14610881576040517f08c379a000000000000000000000000000000000000000000000000000000000815260040161087890611e35565b60405180910390fd5b6000809050600080905060008090505b6002805490508110156108f65782600282815481106108ac57fe5b90600052602060002090600202016001015411156108e957809150600281815481106108d457fe5b90600052602060002090600202016001015492505b8080600101915050610891565b508060048190555060056000806101000a81548160ff0219169083600581111561091c57fe5b02179055507f0e5e95ff8725ab3e7a4b6b59998a4c344c2aa8d1485f5e60cb7f337768e6134760405160405180910390a17f0a97a4ee45751e2abf3e4fc8946939630b11b371ea8ae39ccdc3056e98f5cc3f60046005604051610980929190611cac565b60405180910390a15050565b3373ffffffffffffffffffffffffffffffffffffffff16600560009054906101000a900473ffffffffffffffffffffffffffffffffffffffff1673ffffffffffffffffffffffffffffffffffffffff1614610a1c576040517f08c379a0000000000000000000000000000000000000000000000000000000008152600401610a1390611df5565b60405180910390fd5b60006005811115610a2957fe5b6000809054906101000a900460ff166005811115610a4357fe5b14610a83576040517f08c379a0000000000000000000000000000000000000000000000000000000008152600401610a7a90611d15565b60405180910390fd5b600160008273ffffffffffffffffffffffffffffffffffffffff1673ffffffffffffffffffffffffffffffffffffffff16815260200190815260200160002060000160009054906101000a900460ff1615610b13576040517f08c379a0000000000000000000000000000000000000000000000000000000008152600401610b0a90611dd5565b60405180910390fd5b6003819080600181540180825580915050600190039060005260206000200160009091909190916101000a81548173ffffffffffffffffffffffffffffffffffffffff021916908373ffffffffffffffffffffffffffffffffffffffff16021790555060405180608001604052806001151581526020016000151581526020016000151581526020016000815250600160008373ffffffffffffffffffffffffffffffffffffffff1673ffffffffffffffffffffffffffffffffffffffff16815260200190815260200160002060008201518160000160006101000a81548160ff02191690831515021790555060208201518160000160016101000a81548160ff02191690831515021790555060408201518160000160026101000a81548160ff021916908315150217905550606082015181600101559050507fb6be2187d059cc2a55fe29e0e503b566e1e0f8c8780096e185429350acffd3dd81604051610c7c9190611c09565b60405180910390a150565b3373ffffffffffffffffffffffffffffffffffffffff16600560009054906101000a900473ffffffffffffffffffffffffffffffffffffffff1673ffffffffffffffffffffffffffffffffffffffff1614610d17576040517f08c379a0000000000000000000000000000000000000000000000000000000008152600401610d0e90611df5565b60405180910390fd5b60016005811115610d2457fe5b6000809054906101000a900460ff166005811115610d3e57fe5b14610d7e576040517f08c379a0000000000000000000000000000000000000000000000000000000008152600401610d7590611e15565b60405180910390fd5b60026000806101000a81548160ff02191690836005811115610d9c57fe5b02179055507f240cb87b2e4df4c318e72bd714d45a9cad60249e883ff56b1fffd83a4595a8fa60405160405180910390a17f0a97a4ee45751e2abf3e4fc8946939630b11b371ea8ae39ccdc3056e98f5cc3f60016002604051610e00929190611cac565b60405180910390a1565b6000600560009054906101000a900473ffffffffffffffffffffffffffffffffffffffff16905090565b6000809054906101000a900460ff1681565b3373ffffffffffffffffffffffffffffffffffffffff16600560009054906101000a900473ffffffffffffffffffffffffffffffffffffffff1673ffffffffffffffffffffffffffffffffffffffff1614610ed6576040517f08c379a0000000000000000000000000000000000000000000000000000000008152600401610ecd90611df5565b60405180910390fd5b60036005811115610ee357fe5b6000809054906101000a900460ff166005811115610efd57fe5b14610f3d576040517f08c379a0000000000000000000000000000000000000000000000000000000008152600401610f3490611cf5565b60405180910390fd5b60046000806101000a81548160ff02191690836005811115610f5b57fe5b02179055507fc379d349a6301baf50fb2f98d829f4ae10b1cdb7c66f4e4d8117302df7b8cd4c60405160405180910390a17f0a97a4ee45751e2abf3e4fc8946939630b11b371ea8ae39ccdc3056e98f5cc3f60036004604051610fbf929190611cac565b60405180910390a1565b606060006005811115610fd857fe5b6000809054906101000a900460ff166005811115610ff257fe5b1415611033576040517f08c379a000000000000000000000000000000000000000000000000000000000815260040161102a90611e15565b60405180910390fd5b6002805480602002602001604051908101604052809291908181526020016000905b828210156111335783829060005260206000209060020201604051806040016040529081600082018054600181600116156101000203166002900480601f0160208091040260200160405190810160405280929190818152602001828054600181600116156101000203166002900480156111115780601f106110e657610100808354040283529160200191611111565b820191906000526020600020905b8154815290600101906020018083116110f457829003601f168201915b5050505050815260200160018201548152505081526020019060010190611055565b50505050905090565b60045481565b606060038054806020026020016040519081016040528092919081815260200182805480156111c657602002820191906000526020600020905b8160009054906101000a900473ffffffffffffffffffffffffffffffffffffffff1673ffffffffffffffffffffffffffffffffffffffff168152602001906001019080831161117c575b5050505050905090565b3373ffffffffffffffffffffffffffffffffffffffff16600560009054906101000a900473ffffffffffffffffffffffffffffffffffffffff1673ffffffffffffffffffffffffffffffffffffffff1614611260576040517f08c379a000000000000000000000000000000000000000000000000000000000815260040161125790611df5565b60405180910390fd5b6000600581111561126d57fe5b6000809054906101000a900460ff16600581111561128757fe5b146112c7576040517f08c379a00000000000000000000000000000000000000000000000000000000081526004016112be90611d75565b60405180910390fd5b60016000806101000a81548160ff021916908360058111156112e557fe5b02179055507f344c25562921d075a298d34b6dd1fd00d36ff293974539dfd4a8c625d9f0064c60405160405180910390a17f0a97a4ee45751e2abf3e4fc8946939630b11b371ea8ae39ccdc3056e98f5cc3f60006001604051611349929190611cac565b60405180910390a1565b3373ffffffffffffffffffffffffffffffffffffffff16600560009054906101000a900473ffffffffffffffffffffffffffffffffffffffff1673ffffffffffffffffffffffffffffffffffffffff16146113e3576040517f08c379a00000000000000000000000000000000000000000000000000000000081526004016113da90611df5565b60405180910390fd5b600260058111156113f057fe5b6000809054906101000a900460ff16600581111561140a57fe5b1461144a576040517f08c379a000000000000000000000000000000000000000000000000000000000815260040161144190611d35565b60405180910390fd5b60036000806101000a81548160ff0219169083600581111561146857fe5b02179055507f1b8e19a458c1bcd88553332c518cc5c4e2d5793e712ee766d4f1c14f672ef1f560405160405180910390a17f0a97a4ee45751e2abf3e4fc8946939630b11b371ea8ae39ccdc3056e98f5cc3f600260036040516114cc929190611cac565b60405180910390a1565b60008060009054906101000a900460ff16905090565b828054600181600116156101000203166002900490600052602060002090601f016020900481019282601f1061152d57805160ff191683800117855561155b565b8280016001018555821561155b579182015b8281111561155a57825182559160200191906001019061153f565b5b509050611568919061156c565b5090565b61158e91905b8082111561158a576000816000905550600101611572565b5090565b90565b6000813590506115a08161205f565b92915050565b600082601f8301126115b757600080fd5b81356115ca6115c582611e9d565b611e70565b915080825260208301602083018583830111156115e657600080fd5b6115f1838284611fff565b50505092915050565b60008135905061160981612076565b92915050565b60006020828403121561162157600080fd5b600061162f84828501611591565b91505092915050565b60006020828403121561164a57600080fd5b600082013567ffffffffffffffff81111561166457600080fd5b611670848285016115a6565b91505092915050565b60006020828403121561168b57600080fd5b6000611699848285016115fa565b91505092915050565b60006116ae83836116dd565b60208301905092915050565b60006116c68383611bae565b905092915050565b6116d781611fb7565b82525050565b6116e681611f68565b82525050565b6116f581611f68565b82525050565b600061170682611ee9565b6117108185611f24565b935061171b83611ec9565b8060005b8381101561174c57815161173388826116a2565b975061173e83611f0a565b92505060018101905061171f565b5085935050505092915050565b600061176482611ef4565b61176e8185611f35565b93508360208202850161178085611ed9565b8060005b858110156117bc578484038952815161179d85826116ba565b94506117a883611f17565b925060208a01995050600181019050611784565b50829750879550505050505092915050565b6117d781611fc9565b82525050565b60006117e882611eff565b6117f28185611f46565b935061180281856020860161200e565b61180b81612041565b840191505092915050565b6000611823601683611f57565b91507f50726f706f736974696f6e2064656a61206661697465000000000000000000006000830152602082019050919050565b6000611863601183611f57565b91507f566f74652070617320656e20636f7572730000000000000000000000000000006000830152602082019050919050565b60006118a3602483611f57565b91507f456e72656769737472656d656e742064657320656c656374657572732074657260008301527f6d696e65000000000000000000000000000000000000000000000000000000006020830152604082019050919050565b6000611909602c83611f57565b91507f456e72656769737472656d656e74206465732070726f706f736974696f6e732060008301527f706173207465726d696e656500000000000000000000000000000000000000006020830152604082019050919050565b600061196f601a83611f57565b91507f49642064652070726f706f736974696f6e20696e76616c6964650000000000006000830152602082019050919050565b60006119af602783611f57565b91507f456e72656769737472656d656e74206465732070726f706f736974696f6e732060008301527f7465726d696e65000000000000000000000000000000000000000000000000006020830152604082019050919050565b6000611a15600b83611f57565b91507f50617320696e73637269740000000000000000000000000000000000000000006000830152602082019050919050565b6000611a55600983611f57565b91507f44656a6120766f746500000000000000000000000000000000000000000000006000830152602082019050919050565b6000611a95601a83611f57565b91507f416472657373652064656a6120656e72656769737472656520210000000000006000830152602082019050919050565b6000611ad5600c83611f57565b91507f41646d696e2072657175697300000000000000000000000000000000000000006000830152602082019050919050565b6000611b15602c83611f57565b91507f456e72656769737472656d656e74206465732070726f706f736974696f6e732060008301527f70617320656e20636f75727300000000000000000000000000000000000000006020830152604082019050919050565b6000611b7b601083611f57565b91507f566f746520706173207465726d696e65000000000000000000000000000000006000830152602082019050919050565b60006040830160008301518482036000860152611bcb82826117dd565b9150506020830151611be06020860182611beb565b508091505092915050565b611bf481611fad565b82525050565b611c0381611fad565b82525050565b6000602082019050611c1e60008301846116ec565b92915050565b6000604082019050611c3960008301856116ce565b611c466020830184611bfa565b9392505050565b60006020820190508181036000830152611c6781846116fb565b905092915050565b60006020820190508181036000830152611c898184611759565b905092915050565b6000602082019050611ca660008301846117ce565b92915050565b6000604082019050611cc160008301856117ce565b611cce60208301846117ce565b9392505050565b60006020820190508181036000830152611cee81611816565b9050919050565b60006020820190508181036000830152611d0e81611856565b9050919050565b60006020820190508181036000830152611d2e81611896565b9050919050565b60006020820190508181036000830152611d4e816118fc565b9050919050565b60006020820190508181036000830152611d6e81611962565b9050919050565b60006020820190508181036000830152611d8e816119a2565b9050919050565b60006020820190508181036000830152611dae81611a08565b9050919050565b60006020820190508181036000830152611dce81611a48565b9050919050565b60006020820190508181036000830152611dee81611a88565b9050919050565b60006020820190508181036000830152611e0e81611ac8565b9050919050565b60006020820190508181036000830152611e2e81611b08565b9050919050565b60006020820190508181036000830152611e4e81611b6e565b9050919050565b6000602082019050611e6a6000830184611bfa565b92915050565b6000604051905081810181811067ffffffffffffffff82111715611e9357600080fd5b8060405250919050565b600067ffffffffffffffff821115611eb457600080fd5b601f19601f8301169050602081019050919050565b6000819050602082019050919050565b6000819050602082019050919050565b600081519050919050565b600081519050919050565b600081519050919050565b6000602082019050919050565b6000602082019050919050565b600082825260208201905092915050565b600082825260208201905092915050565b600082825260208201905092915050565b600082825260208201905092915050565b6000611f7382611f8d565b9050919050565b6000819050611f8882612052565b919050565b600073ffffffffffffffffffffffffffffffffffffffff82169050919050565b6000819050919050565b6000611fc282611fdb565b9050919050565b6000611fd482611f7a565b9050919050565b6000611fe682611fed565b9050919050565b6000611ff882611f8d565b9050919050565b82818337600083830152505050565b60005b8381101561202c578082015181840152602081019050612011565b8381111561203b576000848401525b50505050565b6000601f19601f8301169050919050565b6006811061205c57fe5b50565b61206881611f68565b811461207357600080fd5b50565b61207f81611fad565b811461208a57600080fd5b5056fea264697066735822122039e27b6ee93f252a7630796c1b1571aa24086c3d6b8f75fd4d7f9efc7329555764736f6c634300060b0033",
  "immutableReferences": {},
  "source": "// SPDX-License-Identifier: MIT\npragma solidity 0.6.11;\npragma experimental ABIEncoderV2;\n\n/**\n * @title Voting\n * @author groupe 5 : yann, louisplessis, oudom\n * @notice Dfi 1\n * @dev administrateur du vote = owner\n */\n contract Voting {\n    // Les diffrentes phases du vote se succdant\n    enum WorkflowStatus {\n        RegisteringVoters, // 0\n        ProposalsRegistrationStarted, // 1\n        ProposalsRegistrationEnded, // 2\n        VotingSessionStarted, // 3\n        VotingSessionEnded, // 4\n        VotesTallied // 5\n    }\n\n    event VoterRegistered(address voterAddress);\n    event ProposalsRegistrationStarted();\n    event ProposalsRegistrationEnded();\n    event ProposalRegistered(uint proposalId);\n    event VotingSessionStarted();\n    event VotingSessionEnded();\n    event Voted (address voter, uint proposalId);\n    event VotesTallied();\n    event WorkflowStatusChange(WorkflowStatus previousStatus, WorkflowStatus newStatus);\n\n    struct Voter {\n        bool isRegistered;\n        bool hasVoted;\n        bool hasProposed; // amlioration par rapport  l'nonc\n        uint votedProposalId;\n    }\n\n    struct Proposal {\n        string description;\n        uint voteCount;\n    }\n\n    // status du contrat\n    WorkflowStatus public workflowStatus;\n    mapping (address => Voter) private whitelist;\n    // pour enregistrer les propositions\n    Proposal[] private proposals;\n      // pour get all users in whitelist, impossible de return un mapping?\n    address[] private whitelistArray;\n    // index de la proposition ayant reu le plus de votes, commence  0\n    uint public winningProposalId;\n    address private admin;\n\n    /**\n     * @notice Initialise le deployer comme tant l'admin.\n     */\n    constructor () public {\n        admin = msg.sender;\n    }\n\n    modifier onlyAdmin() {\n        require(admin == msg.sender, \"Admin requis\");\n        _;\n    }\n\n    modifier isWhitelisted() {\n        require(whitelist[msg.sender].isRegistered, \"Pas inscrit\");\n        _;\n    }\n\n   /**\n    * @notice Retourne l'adresse de l'admin/owner.\n    */\n    function owner() external view returns(address) {\n        return admin;\n    }\n\n   /**\n    * @notice L'administrateur du vote enregistre une liste blanche d'lecteurs identifis par leur adresse Ethereum.\n    */\n    function register(address addr) external onlyAdmin {\n        require(workflowStatus == WorkflowStatus.RegisteringVoters, \"Enregistrement des electeurs termine\");\n        require(!whitelist[addr].isRegistered, \"Adresse deja enregistree !\");\n        whitelistArray.push(addr);\n        whitelist[addr] = Voter(true, false, false, 0);\n        emit VoterRegistered(addr);\n    }\n\n    /**\n     * @notice L'administrateur du vote commence la session d'enregistrement de la proposition.\n     */\n    function startProposalsRegistration() external onlyAdmin {\n        require(workflowStatus == WorkflowStatus.RegisteringVoters, \"Enregistrement des propositions termine\");\n        workflowStatus = WorkflowStatus.ProposalsRegistrationStarted;\n        emit ProposalsRegistrationStarted();\n        emit WorkflowStatusChange(WorkflowStatus.RegisteringVoters, WorkflowStatus.ProposalsRegistrationStarted);\n    }\n\n    /**\n     * @notice Permet de rcuprer la liste des propositions.\n     */\n    function getProposal() external view returns (Proposal[] memory){\n        require(workflowStatus != WorkflowStatus.RegisteringVoters, \"Enregistrement des propositions pas en cours\");\n        return proposals;\n    }\n\n    /**\n     * @notice Permet de rcuprer la liste des propositions.\n     */\n    function getWhitelist() external view returns (address[] memory){\n        return whitelistArray;\n    }\n\n\n    function getWorkflowStatus() external view returns (WorkflowStatus) {\n         return workflowStatus;       \n     }\n\n    /**\n     * @notice Les lecteurs inscrits sont autoriss  enregistrer leurs propositions pendant que la session d'enregistrement est active.\n     */\n    function registerProposal(string memory description) external isWhitelisted {\n        require(workflowStatus == WorkflowStatus.ProposalsRegistrationStarted, \"Enregistrement des propositions pas en cours\");\n        require(!whitelist[msg.sender].hasProposed, \"Proposition deja faite\");\n        proposals.push(Proposal(description, 0));\n        whitelist[msg.sender].hasProposed = true;\n        emit ProposalRegistered(proposals.length);\n    }\n\n    /**\n     * @notice  L'administrateur de vote met fin  la session d'enregistrement des propositions.\n     */\n    function endProposalsRegistration() external onlyAdmin {\n        require(workflowStatus == WorkflowStatus.ProposalsRegistrationStarted, \"Enregistrement des propositions pas en cours\");\n        workflowStatus = WorkflowStatus.ProposalsRegistrationEnded;\n        emit ProposalsRegistrationEnded();\n        emit WorkflowStatusChange(WorkflowStatus.ProposalsRegistrationStarted, WorkflowStatus.ProposalsRegistrationEnded);\n    }\n\n    /**\n     * @notice L'administrateur du vote commence la session de vote.\n     */\n    function startVotingSession() external onlyAdmin {\n        require(workflowStatus == WorkflowStatus.ProposalsRegistrationEnded, \"Enregistrement des propositions pas terminee\");\n        workflowStatus = WorkflowStatus.VotingSessionStarted;\n        emit VotingSessionStarted();\n        emit WorkflowStatusChange(WorkflowStatus.ProposalsRegistrationEnded, WorkflowStatus.VotingSessionStarted);\n    }\n\n    /**\n     * @notice Les lecteurs inscrits votent pour leurs propositions prfres.\n     */\n    function vote(uint proposalId) external isWhitelisted {\n        require(workflowStatus == WorkflowStatus.VotingSessionStarted, \"Vote pas en cours\");\n        require(!whitelist[msg.sender].hasVoted, \"Deja vote\");\n        require(proposalId < proposals.length , \"Id de proposition invalide\");\n        whitelist[msg.sender].votedProposalId = proposalId;\n        whitelist[msg.sender].hasVoted = true;\n        proposals[proposalId].voteCount++;\n        emit Voted(msg.sender, proposalId);\n    }\n\n    /**\n     * @notice L'administrateur du vote met fin  la session de vote.\n     */\n    function endVotingSession() external onlyAdmin {\n        require(workflowStatus == WorkflowStatus.VotingSessionStarted, \"Vote pas en cours\");\n        workflowStatus = WorkflowStatus.VotingSessionEnded;\n        emit VotingSessionEnded();\n        emit WorkflowStatusChange(WorkflowStatus.VotingSessionStarted, WorkflowStatus.VotingSessionEnded);\n    }\n\n    /**\n     * @notice L'administrateur du vote comptabilise les votes.\n     */\n    function tally() external onlyAdmin {\n        require(workflowStatus == WorkflowStatus.VotingSessionEnded, \"Vote pas termine\");\n        uint maxVoteCount = 0;\n        uint winningProposalIdLocal = 0;\n        for (uint i = 0; i < proposals.length; i++) {\n            if (proposals[i].voteCount > maxVoteCount) {\n                winningProposalIdLocal = i;\n                maxVoteCount = proposals[i].voteCount;\n            }\n        }\n        winningProposalId = winningProposalIdLocal;\n        workflowStatus = WorkflowStatus.VotesTallied;\n        emit VotesTallied();\n        emit WorkflowStatusChange(WorkflowStatus.VotingSessionEnded, WorkflowStatus.VotesTallied);\n    }\n}\n",
  "sourcePath": "/home/oudom/voting-react/contracts/Voting.sol",
  "compiler": {
    "name": "solc",
    "version": "0.6.11+commit.5ef660b1.Emscripten.clang"
  },
  "schemaVersion": "3.3.3",
  "updatedAt": "2021-03-21T17:33:06.716Z",
  "networkType": "ethereum",
  "devdoc": {
    "author": "groupe 5 : yann, louisplessis, oudom",
    "details": "administrateur du vote = owner",
    "kind": "dev",
    "methods": {},
    "title": "Voting",
    "version": 1
  },
  "userdoc": {
    "kind": "user",
    "methods": {
      "constructor": "Initialise le deployer comme tant l'admin.",
      "endProposalsRegistration()": {
        "notice": "L'administrateur de vote met fin  la session d'enregistrement des propositions."
      },
      "endVotingSession()": {
        "notice": "L'administrateur du vote met fin  la session de vote."
      },
      "getProposal()": {
        "notice": "Permet de rcuprer la liste des propositions."
      },
      "getWhitelist()": {
        "notice": "Permet de rcuprer la liste des propositions."
      },
      "owner()": {
        "notice": "Retourne l'adresse de l'admin/owner."
      },
      "register(address)": {
        "notice": "L'administrateur du vote enregistre une liste blanche d'lecteurs identifis par leur adresse Ethereum."
      },
      "registerProposal(string)": {
        "notice": "Les lecteurs inscrits sont autoriss  enregistrer leurs propositions pendant que la session d'enregistrement est active."
      },
      "startProposalsRegistration()": {
        "notice": "L'administrateur du vote commence la session d'enregistrement de la proposition."
      },
      "startVotingSession()": {
        "notice": "L'administrateur du vote commence la session de vote."
      },
      "tally()": {
        "notice": "L'administrateur du vote comptabilise les votes."
      },
      "vote(uint256)": {
        "notice": "Les lecteurs inscrits votent pour leurs propositions prfres."
      }
    },
    "notice": "Dfi 1",
    "version": 1
  }
}