{
  "contractName": "Voting",
  "abi": [
    {
      "inputs": [],
      "stateMutability": "nonpayable",
      "type": "constructor"
    },
    {
      "anonymous": false,
      "inputs": [
        {
          "indexed": false,
          "internalType": "uint256",
          "name": "proposalId",
          "type": "uint256"
        }
      ],
      "name": "ProposalRegistered",
      "type": "event"
    },
    {
      "anonymous": false,
      "inputs": [],
      "name": "ProposalsRegistrationEnded",
      "type": "event"
    },
    {
      "anonymous": false,
      "inputs": [],
      "name": "ProposalsRegistrationStarted",
      "type": "event"
    },
    {
      "anonymous": false,
      "inputs": [
        {
          "indexed": false,
          "internalType": "address",
          "name": "voter",
          "type": "address"
        },
        {
          "indexed": false,
          "internalType": "uint256",
          "name": "proposalId",
          "type": "uint256"
        }
      ],
      "name": "Voted",
      "type": "event"
    },
    {
      "anonymous": false,
      "inputs": [
        {
          "indexed": false,
          "internalType": "address",
          "name": "voterAddress",
          "type": "address"
        }
      ],
      "name": "VoterRegistered",
      "type": "event"
    },
    {
      "anonymous": false,
      "inputs": [],
      "name": "VotesTallied",
      "type": "event"
    },
    {
      "anonymous": false,
      "inputs": [],
      "name": "VotingSessionEnded",
      "type": "event"
    },
    {
      "anonymous": false,
      "inputs": [],
      "name": "VotingSessionStarted",
      "type": "event"
    },
    {
      "anonymous": false,
      "inputs": [
        {
          "indexed": false,
          "internalType": "enum Voting.WorkflowStatus",
          "name": "previousStatus",
          "type": "uint8"
        },
        {
          "indexed": false,
          "internalType": "enum Voting.WorkflowStatus",
          "name": "newStatus",
          "type": "uint8"
        }
      ],
      "name": "WorkflowStatusChange",
      "type": "event"
    },
    {
      "inputs": [],
      "name": "winningProposalId",
      "outputs": [
        {
          "internalType": "uint256",
          "name": "",
          "type": "uint256"
        }
      ],
      "stateMutability": "view",
      "type": "function",
      "constant": true
    },
    {
      "inputs": [],
      "name": "workflowStatus",
      "outputs": [
        {
          "internalType": "enum Voting.WorkflowStatus",
          "name": "",
          "type": "uint8"
        }
      ],
      "stateMutability": "view",
      "type": "function",
      "constant": true
    },
    {
      "inputs": [],
      "name": "owner",
      "outputs": [
        {
          "internalType": "address",
          "name": "",
          "type": "address"
        }
      ],
      "stateMutability": "view",
      "type": "function",
      "constant": true
    },
    {
      "inputs": [
        {
          "internalType": "address",
          "name": "addr",
          "type": "address"
        }
      ],
      "name": "register",
      "outputs": [],
      "stateMutability": "nonpayable",
      "type": "function"
    },
    {
      "inputs": [],
      "name": "startProposalsRegistration",
      "outputs": [],
      "stateMutability": "nonpayable",
      "type": "function"
    },
    {
      "inputs": [],
      "name": "getProposal",
      "outputs": [
        {
          "components": [
            {
              "internalType": "string",
              "name": "description",
              "type": "string"
            },
            {
              "internalType": "uint256",
              "name": "voteCount",
              "type": "uint256"
            }
          ],
          "internalType": "struct Voting.Proposal[]",
          "name": "",
          "type": "tuple[]"
        }
      ],
      "stateMutability": "view",
      "type": "function",
      "constant": true
    },
    {
      "inputs": [],
      "name": "getWhitelist",
      "outputs": [
        {
          "internalType": "address[]",
          "name": "",
          "type": "address[]"
        }
      ],
      "stateMutability": "view",
      "type": "function",
      "constant": true
    },
    {
      "inputs": [],
      "name": "getWorkflowStatus",
      "outputs": [
        {
          "internalType": "enum Voting.WorkflowStatus",
          "name": "",
          "type": "uint8"
        }
      ],
      "stateMutability": "view",
      "type": "function",
      "constant": true
    },
    {
      "inputs": [
        {
          "internalType": "string",
          "name": "description",
          "type": "string"
        }
      ],
      "name": "registerProposal",
      "outputs": [],
      "stateMutability": "nonpayable",
      "type": "function"
    },
    {
      "inputs": [],
      "name": "endProposalsRegistration",
      "outputs": [],
      "stateMutability": "nonpayable",
      "type": "function"
    },
    {
      "inputs": [],
      "name": "startVotingSession",
      "outputs": [],
      "stateMutability": "nonpayable",
      "type": "function"
    },
    {
      "inputs": [
        {
          "internalType": "uint256",
          "name": "proposalId",
          "type": "uint256"
        }
      ],
      "name": "vote",
      "outputs": [],
      "stateMutability": "nonpayable",
      "type": "function"
    },
    {
      "inputs": [],
      "name": "endVotingSession",
      "outputs": [],
      "stateMutability": "nonpayable",
      "type": "function"
    },
    {
      "inputs": [],
      "name": "tally",
      "outputs": [],
      "stateMutability": "nonpayable",
      "type": "function"
    }
  ],
  "bytecode": "0x608060405234801561001057600080fd5b5033600560006101000a81548173ffffffffffffffffffffffffffffffffffffffff021916908373ffffffffffffffffffffffffffffffffffffffff1602179055506120c6806100616000396000f3fe608060405234801561001057600080fd5b50600436106100ea5760003560e01c8063a7bfab161161008c578063d01f63f511610066578063d01f63f5146101d9578063e09b8c79146101f7578063ee74c67814610201578063f75d64a61461020b576100ea565b8063a7bfab1614610193578063b9e2bea01461019d578063c64963c5146101bb576100ea565b80634420e486116100c85780634420e486146101315780636c2974451461014d5780638da5cb5b14610157578063a1edffa214610175576100ea565b80630121b93f146100ef5780632f95355b1461010b578063410673e514610127575b600080fd5b6101096004803603810190610104919061167c565b610229565b005b6101256004803603810190610120919061163b565b610501565b005b61012f61078d565b005b61014b60048036038101906101469190611612565b61098f565b005b610155610c8a565b005b61015f610e0d565b60405161016c9190611c0c565b60405180910390f35b61017d610e37565b60405161018a9190611c94565b60405180910390f35b61019b610e49565b005b6101a5610fcc565b6040516101b29190611c72565b60405180910390f35b6101c361113f565b6040516101d09190611e58565b60405180910390f35b6101e1611145565b6040516101ee9190611c50565b60405180910390f35b6101ff6111d3565b005b610209611356565b005b6102136114d9565b6040516102209190611c94565b60405180910390f35b600160003373ffffffffffffffffffffffffffffffffffffffff1673ffffffffffffffffffffffffffffffffffffffff16815260200190815260200160002060000160009054906101000a900460ff166102b8576040517f08c379a00000000000000000000000000000000000000000000000000000000081526004016102af90611d98565b60405180910390fd5b600360058111156102c557fe5b6000809054906101000a900460ff1660058111156102df57fe5b1461031f576040517f08c379a000000000000000000000000000000000000000000000000000000000815260040161031690611cf8565b60405180910390fd5b600160003373ffffffffffffffffffffffffffffffffffffffff1673ffffffffffffffffffffffffffffffffffffffff16815260200190815260200160002060000160019054906101000a900460ff16156103af576040517f08c379a00000000000000000000000000000000000000000000000000000000081526004016103a690611db8565b60405180910390fd5b60028054905081106103f6576040517f08c379a00000000000000000000000000000000000000000000000000000000081526004016103ed90611d58565b60405180910390fd5b80600160003373ffffffffffffffffffffffffffffffffffffffff1673ffffffffffffffffffffffffffffffffffffffff1681526020019081526020016000206001018190555060018060003373ffffffffffffffffffffffffffffffffffffffff1673ffffffffffffffffffffffffffffffffffffffff16815260200190815260200160002060000160016101000a81548160ff021916908315150217905550600281815481106104a457fe5b9060005260206000209060020201600101600081548092919060010191905055507f4d99b957a2bc29a30ebd96a7be8e68fe50a3c701db28a91436490b7d53870ca433826040516104f6929190611c27565b60405180910390a150565b600160003373ffffffffffffffffffffffffffffffffffffffff1673ffffffffffffffffffffffffffffffffffffffff16815260200190815260200160002060000160009054906101000a900460ff16610590576040517f08c379a000000000000000000000000000000000000000000000000000000000815260040161058790611d98565b60405180910390fd5b6001600581111561059d57fe5b6000809054906101000a900460ff1660058111156105b757fe5b146105f7576040517f08c379a00000000000000000000000000000000000000000000000000000000081526004016105ee90611e18565b60405180910390fd5b600160003373ffffffffffffffffffffffffffffffffffffffff1673ffffffffffffffffffffffffffffffffffffffff16815260200190815260200160002060000160029054906101000a900460ff1615610687576040517f08c379a000000000000000000000000000000000000000000000000000000000815260040161067e90611cd8565b60405180910390fd5b600260405180604001604052808381526020016000815250908060018154018082558091505060019003906000526020600020906002020160009091909190915060008201518160000190805190602001906106e49291906114ef565b5060208201518160010155505060018060003373ffffffffffffffffffffffffffffffffffffffff1673ffffffffffffffffffffffffffffffffffffffff16815260200190815260200160002060000160026101000a81548160ff0219169083151502179055507f92e393e9b54e2f801d3ea4beb0c5e71a21cc34a5d34b77d0fb8a3aa1650dc18f6001600280549050036040516107829190611e58565b60405180910390a150565b3373ffffffffffffffffffffffffffffffffffffffff16600560009054906101000a900473ffffffffffffffffffffffffffffffffffffffff1673ffffffffffffffffffffffffffffffffffffffff161461081d576040517f08c379a000000000000000000000000000000000000000000000000000000000815260040161081490611df8565b60405180910390fd5b6004600581111561082a57fe5b6000809054906101000a900460ff16600581111561084457fe5b14610884576040517f08c379a000000000000000000000000000000000000000000000000000000000815260040161087b90611e38565b60405180910390fd5b6000809050600080905060008090505b6002805490508110156108f95782600282815481106108af57fe5b90600052602060002090600202016001015411156108ec57809150600281815481106108d757fe5b90600052602060002090600202016001015492505b8080600101915050610894565b508060048190555060056000806101000a81548160ff0219169083600581111561091f57fe5b02179055507f0e5e95ff8725ab3e7a4b6b59998a4c344c2aa8d1485f5e60cb7f337768e6134760405160405180910390a17f0a97a4ee45751e2abf3e4fc8946939630b11b371ea8ae39ccdc3056e98f5cc3f60046005604051610983929190611caf565b60405180910390a15050565b3373ffffffffffffffffffffffffffffffffffffffff16600560009054906101000a900473ffffffffffffffffffffffffffffffffffffffff1673ffffffffffffffffffffffffffffffffffffffff1614610a1f576040517f08c379a0000000000000000000000000000000000000000000000000000000008152600401610a1690611df8565b60405180910390fd5b60006005811115610a2c57fe5b6000809054906101000a900460ff166005811115610a4657fe5b14610a86576040517f08c379a0000000000000000000000000000000000000000000000000000000008152600401610a7d90611d18565b60405180910390fd5b600160008273ffffffffffffffffffffffffffffffffffffffff1673ffffffffffffffffffffffffffffffffffffffff16815260200190815260200160002060000160009054906101000a900460ff1615610b16576040517f08c379a0000000000000000000000000000000000000000000000000000000008152600401610b0d90611dd8565b60405180910390fd5b6003819080600181540180825580915050600190039060005260206000200160009091909190916101000a81548173ffffffffffffffffffffffffffffffffffffffff021916908373ffffffffffffffffffffffffffffffffffffffff16021790555060405180608001604052806001151581526020016000151581526020016000151581526020016000815250600160008373ffffffffffffffffffffffffffffffffffffffff1673ffffffffffffffffffffffffffffffffffffffff16815260200190815260200160002060008201518160000160006101000a81548160ff02191690831515021790555060208201518160000160016101000a81548160ff02191690831515021790555060408201518160000160026101000a81548160ff021916908315150217905550606082015181600101559050507fb6be2187d059cc2a55fe29e0e503b566e1e0f8c8780096e185429350acffd3dd81604051610c7f9190611c0c565b60405180910390a150565b3373ffffffffffffffffffffffffffffffffffffffff16600560009054906101000a900473ffffffffffffffffffffffffffffffffffffffff1673ffffffffffffffffffffffffffffffffffffffff1614610d1a576040517f08c379a0000000000000000000000000000000000000000000000000000000008152600401610d1190611df8565b60405180910390fd5b60016005811115610d2757fe5b6000809054906101000a900460ff166005811115610d4157fe5b14610d81576040517f08c379a0000000000000000000000000000000000000000000000000000000008152600401610d7890611e18565b60405180910390fd5b60026000806101000a81548160ff02191690836005811115610d9f57fe5b02179055507f240cb87b2e4df4c318e72bd714d45a9cad60249e883ff56b1fffd83a4595a8fa60405160405180910390a17f0a97a4ee45751e2abf3e4fc8946939630b11b371ea8ae39ccdc3056e98f5cc3f60016002604051610e03929190611caf565b60405180910390a1565b6000600560009054906101000a900473ffffffffffffffffffffffffffffffffffffffff16905090565b6000809054906101000a900460ff1681565b3373ffffffffffffffffffffffffffffffffffffffff16600560009054906101000a900473ffffffffffffffffffffffffffffffffffffffff1673ffffffffffffffffffffffffffffffffffffffff1614610ed9576040517f08c379a0000000000000000000000000000000000000000000000000000000008152600401610ed090611df8565b60405180910390fd5b60036005811115610ee657fe5b6000809054906101000a900460ff166005811115610f0057fe5b14610f40576040517f08c379a0000000000000000000000000000000000000000000000000000000008152600401610f3790611cf8565b60405180910390fd5b60046000806101000a81548160ff02191690836005811115610f5e57fe5b02179055507fc379d349a6301baf50fb2f98d829f4ae10b1cdb7c66f4e4d8117302df7b8cd4c60405160405180910390a17f0a97a4ee45751e2abf3e4fc8946939630b11b371ea8ae39ccdc3056e98f5cc3f60036004604051610fc2929190611caf565b60405180910390a1565b606060006005811115610fdb57fe5b6000809054906101000a900460ff166005811115610ff557fe5b1415611036576040517f08c379a000000000000000000000000000000000000000000000000000000000815260040161102d90611e18565b60405180910390fd5b6002805480602002602001604051908101604052809291908181526020016000905b828210156111365783829060005260206000209060020201604051806040016040529081600082018054600181600116156101000203166002900480601f0160208091040260200160405190810160405280929190818152602001828054600181600116156101000203166002900480156111145780601f106110e957610100808354040283529160200191611114565b820191906000526020600020905b8154815290600101906020018083116110f757829003601f168201915b5050505050815260200160018201548152505081526020019060010190611058565b50505050905090565b60045481565b606060038054806020026020016040519081016040528092919081815260200182805480156111c957602002820191906000526020600020905b8160009054906101000a900473ffffffffffffffffffffffffffffffffffffffff1673ffffffffffffffffffffffffffffffffffffffff168152602001906001019080831161117f575b5050505050905090565b3373ffffffffffffffffffffffffffffffffffffffff16600560009054906101000a900473ffffffffffffffffffffffffffffffffffffffff1673ffffffffffffffffffffffffffffffffffffffff1614611263576040517f08c379a000000000000000000000000000000000000000000000000000000000815260040161125a90611df8565b60405180910390fd5b6000600581111561127057fe5b6000809054906101000a900460ff16600581111561128a57fe5b146112ca576040517f08c379a00000000000000000000000000000000000000000000000000000000081526004016112c190611d78565b60405180910390fd5b60016000806101000a81548160ff021916908360058111156112e857fe5b02179055507f344c25562921d075a298d34b6dd1fd00d36ff293974539dfd4a8c625d9f0064c60405160405180910390a17f0a97a4ee45751e2abf3e4fc8946939630b11b371ea8ae39ccdc3056e98f5cc3f6000600160405161134c929190611caf565b60405180910390a1565b3373ffffffffffffffffffffffffffffffffffffffff16600560009054906101000a900473ffffffffffffffffffffffffffffffffffffffff1673ffffffffffffffffffffffffffffffffffffffff16146113e6576040517f08c379a00000000000000000000000000000000000000000000000000000000081526004016113dd90611df8565b60405180910390fd5b600260058111156113f357fe5b6000809054906101000a900460ff16600581111561140d57fe5b1461144d576040517f08c379a000000000000000000000000000000000000000000000000000000000815260040161144490611d38565b60405180910390fd5b60036000806101000a81548160ff0219169083600581111561146b57fe5b02179055507f1b8e19a458c1bcd88553332c518cc5c4e2d5793e712ee766d4f1c14f672ef1f560405160405180910390a17f0a97a4ee45751e2abf3e4fc8946939630b11b371ea8ae39ccdc3056e98f5cc3f600260036040516114cf929190611caf565b60405180910390a1565b60008060009054906101000a900460ff16905090565b828054600181600116156101000203166002900490600052602060002090601f016020900481019282601f1061153057805160ff191683800117855561155e565b8280016001018555821561155e579182015b8281111561155d578251825591602001919060010190611542565b5b50905061156b919061156f565b5090565b61159191905b8082111561158d576000816000905550600101611575565b5090565b90565b6000813590506115a381612062565b92915050565b600082601f8301126115ba57600080fd5b81356115cd6115c882611ea0565b611e73565b915080825260208301602083018583830111156115e957600080fd5b6115f4838284612002565b50505092915050565b60008135905061160c81612079565b92915050565b60006020828403121561162457600080fd5b600061163284828501611594565b91505092915050565b60006020828403121561164d57600080fd5b600082013567ffffffffffffffff81111561166757600080fd5b611673848285016115a9565b91505092915050565b60006020828403121561168e57600080fd5b600061169c848285016115fd565b91505092915050565b60006116b183836116e0565b60208301905092915050565b60006116c98383611bb1565b905092915050565b6116da81611fba565b82525050565b6116e981611f6b565b82525050565b6116f881611f6b565b82525050565b600061170982611eec565b6117138185611f27565b935061171e83611ecc565b8060005b8381101561174f57815161173688826116a5565b975061174183611f0d565b925050600181019050611722565b5085935050505092915050565b600061176782611ef7565b6117718185611f38565b93508360208202850161178385611edc565b8060005b858110156117bf57848403895281516117a085826116bd565b94506117ab83611f1a565b925060208a01995050600181019050611787565b50829750879550505050505092915050565b6117da81611fcc565b82525050565b60006117eb82611f02565b6117f58185611f49565b9350611805818560208601612011565b61180e81612044565b840191505092915050565b6000611826601683611f5a565b91507f50726f706f736974696f6e2064656a61206661697465000000000000000000006000830152602082019050919050565b6000611866601183611f5a565b91507f566f74652070617320656e20636f7572730000000000000000000000000000006000830152602082019050919050565b60006118a6602483611f5a565b91507f456e72656769737472656d656e742064657320656c656374657572732074657260008301527f6d696e65000000000000000000000000000000000000000000000000000000006020830152604082019050919050565b600061190c602c83611f5a565b91507f456e72656769737472656d656e74206465732070726f706f736974696f6e732060008301527f706173207465726d696e656500000000000000000000000000000000000000006020830152604082019050919050565b6000611972601a83611f5a565b91507f49642064652070726f706f736974696f6e20696e76616c6964650000000000006000830152602082019050919050565b60006119b2602783611f5a565b91507f456e72656769737472656d656e74206465732070726f706f736974696f6e732060008301527f7465726d696e65000000000000000000000000000000000000000000000000006020830152604082019050919050565b6000611a18600b83611f5a565b91507f50617320696e73637269740000000000000000000000000000000000000000006000830152602082019050919050565b6000611a58600983611f5a565b91507f44656a6120766f746500000000000000000000000000000000000000000000006000830152602082019050919050565b6000611a98601a83611f5a565b91507f416472657373652064656a6120656e72656769737472656520210000000000006000830152602082019050919050565b6000611ad8600c83611f5a565b91507f41646d696e2072657175697300000000000000000000000000000000000000006000830152602082019050919050565b6000611b18602c83611f5a565b91507f456e72656769737472656d656e74206465732070726f706f736974696f6e732060008301527f70617320656e20636f75727300000000000000000000000000000000000000006020830152604082019050919050565b6000611b7e601083611f5a565b91507f566f746520706173207465726d696e65000000000000000000000000000000006000830152602082019050919050565b60006040830160008301518482036000860152611bce82826117e0565b9150506020830151611be36020860182611bee565b508091505092915050565b611bf781611fb0565b82525050565b611c0681611fb0565b82525050565b6000602082019050611c2160008301846116ef565b92915050565b6000604082019050611c3c60008301856116d1565b611c496020830184611bfd565b9392505050565b60006020820190508181036000830152611c6a81846116fe565b905092915050565b60006020820190508181036000830152611c8c818461175c565b905092915050565b6000602082019050611ca960008301846117d1565b92915050565b6000604082019050611cc460008301856117d1565b611cd160208301846117d1565b9392505050565b60006020820190508181036000830152611cf181611819565b9050919050565b60006020820190508181036000830152611d1181611859565b9050919050565b60006020820190508181036000830152611d3181611899565b9050919050565b60006020820190508181036000830152611d51816118ff565b9050919050565b60006020820190508181036000830152611d7181611965565b9050919050565b60006020820190508181036000830152611d91816119a5565b9050919050565b60006020820190508181036000830152611db181611a0b565b9050919050565b60006020820190508181036000830152611dd181611a4b565b9050919050565b60006020820190508181036000830152611df181611a8b565b9050919050565b60006020820190508181036000830152611e1181611acb565b9050919050565b60006020820190508181036000830152611e3181611b0b565b9050919050565b60006020820190508181036000830152611e5181611b71565b9050919050565b6000602082019050611e6d6000830184611bfd565b92915050565b6000604051905081810181811067ffffffffffffffff82111715611e9657600080fd5b8060405250919050565b600067ffffffffffffffff821115611eb757600080fd5b601f19601f8301169050602081019050919050565b6000819050602082019050919050565b6000819050602082019050919050565b600081519050919050565b600081519050919050565b600081519050919050565b6000602082019050919050565b6000602082019050919050565b600082825260208201905092915050565b600082825260208201905092915050565b600082825260208201905092915050565b600082825260208201905092915050565b6000611f7682611f90565b9050919050565b6000819050611f8b82612055565b919050565b600073ffffffffffffffffffffffffffffffffffffffff82169050919050565b6000819050919050565b6000611fc582611fde565b9050919050565b6000611fd782611f7d565b9050919050565b6000611fe982611ff0565b9050919050565b6000611ffb82611f90565b9050919050565b82818337600083830152505050565b60005b8381101561202f578082015181840152602081019050612014565b8381111561203e576000848401525b50505050565b6000601f19601f8301169050919050565b6006811061205f57fe5b50565b61206b81611f6b565b811461207657600080fd5b50565b61208281611fb0565b811461208d57600080fd5b5056fea2646970667358221220d0d0ede182604b397b306e0b33582c8ad7f7a007ab0497a56085e55772b59b5d64736f6c634300060b0033",
  "immutableReferences": {},
  "source": "// SPDX-License-Identifier: MIT\npragma solidity 0.6.11;\npragma experimental ABIEncoderV2;\n\n/**\n * @title Voting\n * @author groupe 5 : yann, louisplessis, oudom\n * @notice Dfi 1\n * @dev administrateur du vote = owner\n */\n contract Voting {\n    // Les diffrentes phases du vote se succdant\n    enum WorkflowStatus {\n        RegisteringVoters, // 0\n        ProposalsRegistrationStarted, // 1\n        ProposalsRegistrationEnded, // 2\n        VotingSessionStarted, // 3\n        VotingSessionEnded, // 4\n        VotesTallied // 5\n    }\n\n    event VoterRegistered(address voterAddress);\n    event ProposalsRegistrationStarted();\n    event ProposalsRegistrationEnded();\n    event ProposalRegistered(uint proposalId);\n    event VotingSessionStarted();\n    event VotingSessionEnded();\n    event Voted(address voter, uint proposalId);\n    event VotesTallied();\n    event WorkflowStatusChange(WorkflowStatus previousStatus, WorkflowStatus newStatus);\n\n    struct Voter {\n        bool isRegistered;\n        bool hasVoted;\n        bool hasProposed; // amlioration par rapport  l'nonc\n        uint votedProposalId;\n    }\n\n    struct Proposal {\n        string description;\n        uint voteCount;\n    }\n\n    // status du contrat\n    WorkflowStatus public workflowStatus;\n    mapping (address => Voter) private whitelist;\n    // pour enregistrer les propositions\n    Proposal[] private proposals;\n      // pour get all users in whitelist, impossible de return un mapping?\n    address[] private whitelistArray;\n    // index de la proposition ayant reu le plus de votes, commence  0\n    uint public winningProposalId;\n    address private admin;\n\n    /**\n     * @notice Initialise le deployer comme tant l'admin.\n     */\n    constructor () public {\n        admin = msg.sender;\n    }\n\n    modifier onlyAdmin() {\n        require(admin == msg.sender, \"Admin requis\");\n        _;\n    }\n\n    modifier isWhitelisted() {\n        require(whitelist[msg.sender].isRegistered, \"Pas inscrit\");\n        _;\n    }\n\n   /**\n    * @notice Retourne l'adresse de l'admin/owner.\n    */\n    function owner() external view returns(address) {\n        return admin;\n    }\n\n   /**\n    * @notice L'administrateur du vote enregistre une liste blanche d'lecteurs identifis par leur adresse Ethereum.\n    */\n    function register(address addr) external onlyAdmin {\n        require(workflowStatus == WorkflowStatus.RegisteringVoters, \"Enregistrement des electeurs termine\");\n        require(!whitelist[addr].isRegistered, \"Adresse deja enregistree !\");\n        whitelistArray.push(addr);\n        whitelist[addr] = Voter(true, false, false, 0);\n        emit VoterRegistered(addr);\n    }\n\n    /**\n     * @notice L'administrateur du vote commence la session d'enregistrement de la proposition.\n     */\n    function startProposalsRegistration() external onlyAdmin {\n        require(workflowStatus == WorkflowStatus.RegisteringVoters, \"Enregistrement des propositions termine\");\n        workflowStatus = WorkflowStatus.ProposalsRegistrationStarted;\n        emit ProposalsRegistrationStarted();\n        emit WorkflowStatusChange(WorkflowStatus.RegisteringVoters, WorkflowStatus.ProposalsRegistrationStarted);\n    }\n\n    /**\n     * @notice Permet de rcuprer la liste des propositions.\n     */\n    function getProposal() external view returns (Proposal[] memory){\n        require(workflowStatus != WorkflowStatus.RegisteringVoters, \"Enregistrement des propositions pas en cours\");\n        return proposals;\n    }\n\n    /**\n     * @notice Permet de rcuprer la liste des propositions.\n     */\n    function getWhitelist() external view returns (address[] memory){\n        return whitelistArray;\n    }\n\n\n    function getWorkflowStatus() external view returns (WorkflowStatus) {\n         return workflowStatus;       \n     }\n\n    /**\n     * @notice Les lecteurs inscrits sont autoriss  enregistrer leurs propositions pendant que la session d'enregistrement est active.\n     */\n    function registerProposal(string memory description) external isWhitelisted {\n        require(workflowStatus == WorkflowStatus.ProposalsRegistrationStarted, \"Enregistrement des propositions pas en cours\");\n        require(!whitelist[msg.sender].hasProposed, \"Proposition deja faite\");\n        proposals.push(Proposal(description, 0));\n        whitelist[msg.sender].hasProposed = true;\n        emit ProposalRegistered(proposals.length-1);\n    }\n\n    /**\n     * @notice  L'administrateur de vote met fin  la session d'enregistrement des propositions.\n     */\n    function endProposalsRegistration() external onlyAdmin {\n        require(workflowStatus == WorkflowStatus.ProposalsRegistrationStarted, \"Enregistrement des propositions pas en cours\");\n        workflowStatus = WorkflowStatus.ProposalsRegistrationEnded;\n        emit ProposalsRegistrationEnded();\n        emit WorkflowStatusChange(WorkflowStatus.ProposalsRegistrationStarted, WorkflowStatus.ProposalsRegistrationEnded);\n    }\n\n    /**\n     * @notice L'administrateur du vote commence la session de vote.\n     */\n    function startVotingSession() external onlyAdmin {\n        require(workflowStatus == WorkflowStatus.ProposalsRegistrationEnded, \"Enregistrement des propositions pas terminee\");\n        workflowStatus = WorkflowStatus.VotingSessionStarted;\n        emit VotingSessionStarted();\n        emit WorkflowStatusChange(WorkflowStatus.ProposalsRegistrationEnded, WorkflowStatus.VotingSessionStarted);\n    }\n\n    /**\n     * @notice Les lecteurs inscrits votent pour leurs propositions prfres.\n     */\n    function vote(uint proposalId) external isWhitelisted {\n        require(workflowStatus == WorkflowStatus.VotingSessionStarted, \"Vote pas en cours\");\n        require(!whitelist[msg.sender].hasVoted, \"Deja vote\");\n        require(proposalId < proposals.length , \"Id de proposition invalide\");\n        whitelist[msg.sender].votedProposalId = proposalId;\n        whitelist[msg.sender].hasVoted = true;\n        proposals[proposalId].voteCount++;\n        emit Voted(msg.sender, proposalId);\n    }\n\n    /**\n     * @notice L'administrateur du vote met fin  la session de vote.\n     */\n    function endVotingSession() external onlyAdmin {\n        require(workflowStatus == WorkflowStatus.VotingSessionStarted, \"Vote pas en cours\");\n        workflowStatus = WorkflowStatus.VotingSessionEnded;\n        emit VotingSessionEnded();\n        emit WorkflowStatusChange(WorkflowStatus.VotingSessionStarted, WorkflowStatus.VotingSessionEnded);\n    }\n\n    /**\n     * @notice L'administrateur du vote comptabilise les votes.\n     */\n    function tally() external onlyAdmin {\n        require(workflowStatus == WorkflowStatus.VotingSessionEnded, \"Vote pas termine\");\n        uint maxVoteCount = 0;\n        uint winningProposalIdLocal = 0;\n        for (uint i = 0; i < proposals.length; i++) {\n            if (proposals[i].voteCount > maxVoteCount) {\n                winningProposalIdLocal = i;\n                maxVoteCount = proposals[i].voteCount;\n            }\n        }\n        winningProposalId = winningProposalIdLocal;\n        workflowStatus = WorkflowStatus.VotesTallied;\n        emit VotesTallied();\n        emit WorkflowStatusChange(WorkflowStatus.VotingSessionEnded, WorkflowStatus.VotesTallied);\n    }\n}\n",
  "sourcePath": "/home/oudom/voting-react/contracts/Voting.sol",
  "compiler": {
    "name": "solc",
    "version": "0.6.11+commit.5ef660b1.Emscripten.clang"
  },
  "schemaVersion": "3.3.3",
  "updatedAt": "2021-03-28T21:50:05.690Z",
  "networkType": "ethereum",
  "devdoc": {
    "author": "groupe 5 : yann, louisplessis, oudom",
    "details": "administrateur du vote = owner",
    "kind": "dev",
    "methods": {},
    "title": "Voting",
    "version": 1
  },
  "userdoc": {
    "kind": "user",
    "methods": {
      "constructor": "Initialise le deployer comme tant l'admin.",
      "endProposalsRegistration()": {
        "notice": "L'administrateur de vote met fin  la session d'enregistrement des propositions."
      },
      "endVotingSession()": {
        "notice": "L'administrateur du vote met fin  la session de vote."
      },
      "getProposal()": {
        "notice": "Permet de rcuprer la liste des propositions."
      },
      "getWhitelist()": {
        "notice": "Permet de rcuprer la liste des propositions."
      },
      "owner()": {
        "notice": "Retourne l'adresse de l'admin/owner."
      },
      "register(address)": {
        "notice": "L'administrateur du vote enregistre une liste blanche d'lecteurs identifis par leur adresse Ethereum."
      },
      "registerProposal(string)": {
        "notice": "Les lecteurs inscrits sont autoriss  enregistrer leurs propositions pendant que la session d'enregistrement est active."
      },
      "startProposalsRegistration()": {
        "notice": "L'administrateur du vote commence la session d'enregistrement de la proposition."
      },
      "startVotingSession()": {
        "notice": "L'administrateur du vote commence la session de vote."
      },
      "tally()": {
        "notice": "L'administrateur du vote comptabilise les votes."
      },
      "vote(uint256)": {
        "notice": "Les lecteurs inscrits votent pour leurs propositions prfres."
      }
    },
    "notice": "Dfi 1",
    "version": 1
  }
}